sprite $oci_configservice [64x64/16] {
0000000000000000000003566300000000000000000000000000000000000000
00000000000000000018CDDDDDC6000000000000000000000000000000000000
000000000000000004CDDDDDDDDDB10000000000000000000000000000000000
00000000000000004DDDDDDDDDDDDC1000000000000000000000000000000000
00000000000000009DDDDDDDDDDDDDA000000000000000000000000000000000
00000000000000000047BDDDDDDDDDD400000000000000000000000000000000
000000000000000000000148BDDDDDDA00000000000000000000000000000000
00000000000000000000000002DDDDDD00000000000000000000000000000000
00000000000000000000000003DDDDDD20000000000000000000000000000000
000000000000006C8510000007DDDDDD20000000000000000000000000000000
000000000000006DDDDA40000ADDDDDD20000000000000000000000000000000
000000000000003DDDDD40001DDDDDDC00000000000000000000000000000000
000000000000000CDDDD10004DDDDDD800000000000000000000000000000000
0000000000000006DDDB00007DDDDDD500000000000000000000000000000000
0000000000000000BDD70000BDDDDDDC10000000000000000000000000000000
00000000000000001BD30001DDDDDDDDA0000000000000000000000000000000
000000000000000001A00005DDDDDDDDD6000000000000000000000000000000
000000000000000000000008DDDDDDDDDD300000000000000000000000000000
0000000000000000000000023CDDDDDDDDB00000000000000000000000000000
00000000000000000000000005DDDDDDDDD90000000000000000000000000000
000000000000000000000000008DDDDDDDDD5000000000000000000000000000
000000000000000000000000000BDDDDDDDDC200000000000000000000000000
0000000000000000000000000002DDDDDDDDDB00000000000000000000000000
00000000000000000000000000006DDDDDDDDD70000000000000000000000000
000000000000000000000000000009DDDDDDDDD4000000000000000000000000
000000000000000000000000000001CDDDDDDDDC100000000000000000000000
0000000000000000000000000000003DDDDDDDDDA00000000000000000000000
00000000000000000000000000000007DDDDDDDDD60000000000000000000000
00000000000000000000000000000000ADDDDDDDDD3000000000000000000000
000000000000000000000000000000001CDDDDDDDDB100000000000000000000
0000000000000000000000000000000005DDDDDDDDD800000000000000000000
00000000000000000000000000000000008DDDDDDDDD50000000000000000000
00000000000000000000000000000000000BDDDDDDDDC2000000000000000000
000000000000000000000000000000000002DDDDDDDDDB000000000000000000
0000000000000000000000000000000000006DDDDDDDDD700000000000000000
00000000000000000000000000000000000009DDDDDDDDD30000000000000000
00000000000000000000000000000000000001CDDD925DDA0000000000000000
000000000000000000000000000000000000004DDD400CDC0000000000000000
0000000000000000000000000000000000000007DDA26DDB0000000000000000
0000000000000000000000000000000000000000ADDDDDD60000000000000000
00000000000000000000000000000000000000002CDDDD700000000000000000
0000000000000000000000000000000000000000028BA40000006CCCCCCCCCC2
0000000000005443210000000000000000000000000000000005DDDDDDDDDD40
00000000003BDDDDDDDCBBAAAAAAAAAAAAAAAA2000000000005DDDDDDDDDD600
0000000007DDDDDDDDDDDDDDDDDDDDDDDDDDDD300000000004DDDDDDDDDD8000
00000003BDDDDDDDDDDDDDDDDDDDDDDDDDDDDD30000000003CDDDDDDDDDA0000
0000007DDDDDDDDDDDDDDDDDDDDDDDDDDDDDDD3000000002CDDDDDDDDDB10000
00002BDDDDDDDDDDDDDDDDDDDDDDDDDDDDDDDD300000002CDDDDDDDDDC200000
0007DDDDDDDDDDDDDDDDDDDDB555555555555510000001CDDDDDDDDDD3000000
02BDDDDDDDDDDDDDDDDDDDDDA00000000000000000001BDDDDDDDDDD50000000
7DDDDDDDDDDDDDDDDDDDDDDDA0000000000000000001BDDDDDDDDDD600000000
DDDDDDDDDDDDDDDDDDDDDDDDA000000000000000000ADDDDDDDDDD8000000000
DDDDDDDDDDDDDDDDDDDDDDDDC88888888888888888ADDDDDDDDDDA0000000000
DDDDDDDDDDDDDDDDDDDDDDDDDDDDDDDDDDDDDDDDDDDDDDDDDDDDB10000000000
DDDDDDDDDDDDDDDDDDDDDDDDDDDDDDDDDDDDDDDDDDDDDDDDDDDC200000000000
DDDDDDDDDDDDDDDDDDDDDDDDDDDDDDDDDDDDDDDDDDDDDDDDDDD3000000000000
DDDDDDDDDDDDDDDDDDDDDDDDDDDDDDDDDDDDDDDDDDDDDDDDDD50000000000000
DDDDDDDDDDDDDDDDDDDDDDDDDDDDDDDDDDDDDDDDDDDDDDDDD600000000000000
DDDDDDDDDDDDDDDDDDDDDDDDDDDDDDDDDDDDDDDDDDDDDDDD8000000000000000
DDDDDDDDDDDDDDDDDDDDDDDDDDDDDDDDDDDDDDDDDDDDDDDA0000000000000000
DDDDDDDDDDDDDDDDDDB644444444444444444444444444410000000000000000
DDDDDDDDDDDDDDDD940000000000000000000000000000000000000000000000
DDDDDDDDDDDDDC71000000000000000000000000000000000000000000000000
DDDDDDDDDDDA5000000000000000000000000000000000000000000000000000
}

!define OCI_CONFIGSERVICE(_color)                                 SPRITE_PUT(          OCI_CONFIGSERVICE          oci_configservice, _color)
!define OCI_CONFIGSERVICE(_color, _scale)                         SPRITE_PUT(          OCI_CONFIGSERVICE          oci_configservice, _color, _scale)
!define OCI_CONFIGSERVICE(_color, _scale, _alias)                 SPRITE_ENT(  _alias, OCI_CONFIGSERVICE,         oci_configservice, _color, _scale)
!define OCI_CONFIGSERVICE(_color, _scale, _alias, _shape)         SPRITE_ENT(  _alias, OCI_CONFIGSERVICE,         oci_configservice, _color, _scale, _shape)
!define OCI_CONFIGSERVICE(_color, _scale, _alias, _shape, _label) SPRITE_ENT_L(_alias, OCI_CONFIGSERVICE, _label, oci_configservice, _color, _scale, _shape)
skinparam folderBackgroundColor<<OCI_CONFIGSERVICE>> White
