sprite $oci_mobile [64x64/16] {
000000000000004BBBBBBBBBBBBBBBBBBBBBBBBBBBBBBBBBB400000000000000
000000000000005DDDDDDDDDDDDDDDDDDDDDDDDDDDDDDDDDD500000000000000
000000000000005DDDDDDDDDDDDDDDDDDDDDDDDDDDDDDDDDD500000000000000
000000000000005DDDDDDDDDDDDDDDDDDDDDDDDDDDDDDDDDD500000000000000
000000000000005DDDDDDDDDD71BD3000000004DDDDDDDDDD500000000000000
000000000000005DDDDDDDDDD60AD3000000004DDDDDDDDDD500000000000000
000000000000005DDDDDDDDDDDCDDCCCCCCCCCCDDDDDDDDDD500000000000000
000000000000005DDDDDDDDDDDDDDDDDDDDDDDDDDDDDDDDDD500000000000000
000000000000005DDDDDDDDDDDDDDDDDDDDDDDDDDDDDDDDDD500000000000000
000000000000005DDDDDDDDDDDDDDDDDDDDDDDDDDDDDDDDDD500000000000000
000000000000005DDDA22222222222222222222222222ADDD500000000000000
000000000000005DDD9000000000000000000000000009DDD500000000000000
000000000000005DDD9000000000000000000000000009DDD500000000000000
000000000000005DDD9000000000000000000000000009DDD500000000000000
000000000000005DDD9000000000000000000000000009DDD500000000000000
000000000000005DDD9000000000000000000000000009DDD500000000000000
000000000000005DDD9000000000000000000000000009DDD500000000000000
000000000000005DDD9000000000000000000000000009DDD500000000000000
000000000000005DDD9000000000000000000000000009DDD500000000000000
000000000000005DDD9000000000000000000000000009DDD500000000000000
000000000000005DDD9000000000000000000000000009DDD500000000000000
000000000000005DDD9000000000000000000000000009DDD500000000000000
000000000000005DDD9000000000000000000000000009DDD500000000000000
000000000000005DDD9000000000000000000000000009DDD500000000000000
000000000000005DDD9000000000000000000000000009DDD500000000000000
000000000000005DDD9000000000000000000000000009DDD500000000000000
000000000000005DDD9000000000000000000000000009DDD500000000000000
000000000000005DDD9000000000000000000000000009DDD500000000000000
000000000000005DDD9000000000000000000000000009DDD500000000000000
000000000000005DDD9000000000000000000000000009DDD500000000000000
000000000000005DDD9000000000000000000000000009DDD500000000000000
000000000000005DDD9000000000000000000000000009DDD500000000000000
000000000000005DDD9000000000000000000000000009DDD500000000000000
000000000000005DDD9000000000000000000000000009DDD500000000000000
000000000000005DDD9000000000000000000000000009DDD500000000000000
000000000000005DDD9000000000000000000000000009DDD500000000000000
000000000000005DDD9000000000000000000000000009DDD500000000000000
000000000000005DDD9000000000000000000000000009DDD500000000000000
000000000000005DDD9000000000000000000000000009DDD500000000000000
000000000000005DDD9000000000000000000000000009DDD500000000000000
000000000000005DDD9000000000000000000000000009DDD500000000000000
000000000000005DDD9000000000000000000000000009DDD500000000000000
000000000000005DDD9000000000000000000000000009DDD500000000000000
000000000000005DDD9000000000000000000000000009DDD500000000000000
000000000000005DDD9000000000000000000000000009DDD500000000000000
000000000000005DDD9000000000000000000000000009DDD500000000000000
000000000000005DDD9000000000000000000000000009DDD500000000000000
000000000000005DDD9000000000000000000000000009DDD500000000000000
000000000000005DDD9000000000000000000000000009DDD500000000000000
000000000000005DDD9000000000000000000000000009DDD500000000000000
000000000000005DDD9000000000000000000000000009DDD500000000000000
000000000000005DDDB55555555555555555555555555BDDD500000000000000
000000000000005DDDDDDDDDDDDDDDDDDDDDDDDDDDDDDDDDD500000000000000
000000000000005DDDDDDDDDDDDDDDDDDDDDDDDDDDDDDDDDD500000000000000
000000000000005DDDDDDDDDDDDDDDDDDDDDDDDDDDDDDDDDD500000000000000
000000000000005DDDDDDDDDDDDDDDDCCDDDDDDDDDDDDDDDD500000000000000
000000000000005DDDDDDDDDDDDDDC4004CDDDDDDDDDDDDDD500000000000000
000000000000005DDDDDDDDDDDDDD600006DDDDDDDDDDDDDD500000000000000
000000000000005DDDDDDDDDDDDDD300003DDDDDDDDDDDDDD500000000000000
000000000000005DDDDDDDDDDDDDD500005DDDDDDDDDDDDDD500000000000000
000000000000005DDDDDDDDDDDDDDC2002CDDDDDDDDDDDDDD500000000000000
000000000000005DDDDDDDDDDDDDDDC99DDDDDDDDDDDDDDDD500000000000000
000000000000005DDDDDDDDDDDDDDDDDDDDDDDDDDDDDDDDDD500000000000000
0000000000000038888888888888888888888888888888888300000000000000
}

!define OCI_MOBILE(_color)                                 SPRITE_PUT(          OCI_MOBILE          oci_mobile, _color)
!define OCI_MOBILE(_color, _scale)                         SPRITE_PUT(          OCI_MOBILE          oci_mobile, _color, _scale)
!define OCI_MOBILE(_color, _scale, _alias)                 SPRITE_ENT(  _alias, OCI_MOBILE,         oci_mobile, _color, _scale)
!define OCI_MOBILE(_color, _scale, _alias, _shape)         SPRITE_ENT(  _alias, OCI_MOBILE,         oci_mobile, _color, _scale, _shape)
!define OCI_MOBILE(_color, _scale, _alias, _shape, _label) SPRITE_ENT_L(_alias, OCI_MOBILE, _label, oci_mobile, _color, _scale, _shape)
skinparam folderBackgroundColor<<OCI_MOBILE>> White
