sprite $oci_invoice [64x64/16] {
000000006DDDDDDDDDDDDDDDDDDDDDDDDDD90002400000000000000000000000
000000006DDDDDDDDDDDDDDDDDDDDDDDDDD90003D40000000000000000000000
000000006DDDDDDDDDDDDDDDDDDDDDDDDDD90003DD4000000000000000000000
000000006DDDDDDDDDDDDDDDDDDDDDDDDDD90003DDD400000000000000000000
000000006DDDDDDDDDDDDDDDDDDDDDDDDDD90003DDDD40000000000000000000
000000006DDDDDDDDDDDDDDDDDDDDDDDDDD90003DDDDD4000000000000000000
000000006DDDDDDDDDDDDDDDDDDDDDDDDDD90003DDDDDD400000000000000000
000000006DDDDDDD4444444444449DDDDDD90003DDDDDDD40000000000000000
000000006DDDDDDC0000000000006DDDDDD90003DDDDDDDD4000000000000000
000000006DDDDDDC0000000000006DDDDDD90003DDDDDDDDD400000000000000
000000006DDDDDDC0000000000006DDDDDD90003DDDDDDDDDD40000000000000
000000006DDDDDDD888888888888ADDDDDD90003DDDDDDDDDDD4000000000000
000000006DDDDDDDDDDDDDDDDDDDDDDDDDD90003DDDDDDDDDDDD400000000000
000000006DDDDDDDDDDDDDDDDDDDDDDDDDD90003DDDDDDDDDDDDD40000000000
000000006DDDDDDDDDDDDDDDDDDDDDDDDDD90003DDDDDDDDDDDDDD4000000000
000000006DDDDDDDDDDDDDDDDDDDDDDDDDD90002CCCCCCCCCCCCCCC300000000
000000006DDDDDDDDDDDDDDDDDDDDDDDDDD90000000000000000000000000000
000000006DDDDDDDDDDDDDDDDDDDDDDDDDD90000000000000000000000000000
000000006DDDDDDDDDDDDDDDDDDDDDDDDDD90000000000000000000000000000
000000006DDDDDDDDDDDDDDDDDDDDDDDDDD90000000000000000000000000000
000000006DDDDDDDDDDDDDDDDDDDDDDDDDDDDDDDDDDDDDDDDDDDDDD600000000
000000006DDDDDDDDDDDDDDDDDDDDDDDDDDDDDDDDDDDDDDDDDDDDDD600000000
000000006DDDDDDDDDDDDDDDDDDDDDDDDDDDDDDDDDDDDDDDDDDDDDD600000000
000000006DDDDDDDDDDDDDDDDDDDDDDDDDDDDDDDDDDDDDDDDDDDDDD600000000
000000006DDDDDDDDDDDDDDDDDDDDDDDDDDDDDDDDDDDDDDDDDDDDDD600000000
000000006DDDDD82C62BD4662BD72C9213AD63DC5116D10005DDDDD600000000
000000006DDDDD70B402C24906D13A02611C50D40542C02779DDDDD600000000
000000006DDDDD70B400424D11A0860BDA0850D05DDDD01449DDDDD600000000
000000006DDDDD70B416004D7021C60BDA0850D04DDCD0266ADDDDD600000000
000000006DDDDD70B41D304DC005DB02511C50D50431B01557DDDDD600000000
000000006DDDDD81C53DC25DD40BDDA314BD62DC6238D32225DDDDD600000000
000000006DDDDDDDDDDDDDDDDDDDDDDDDDDDDDDDDDDDDDDDDDDDDDD600000000
000000006DDDDDDDDDDDDDDDDDDDDDDDDDDDDDDDDDDDDDDDDDDDDDD600000000
000000006DDDDDDDDDDDDDDDDDDDDDDDDDDDDDDDDDDDDDDDDDDDDDD600000000
000000006DDDDDDDCCCCCCCCCCCCCCCCCCCCCCCCCCCCCCCCDDDDDDD600000000
000000006DDDDDDC00000000000000000000000000000000ADDDDDD600000000
000000006DDDDDDC00000000000000000000000000000000ADDDDDD600000000
000000006DDDDDDC00000000000000000000000000000000ADDDDDD600000000
000000006DDDDDDC00000000000000000000000000000000ADDDDDD600000000
000000006DDDDDDC0000DDDD30009DDDDDDDDDDDDDDD2000ADDDDDD600000000
000000006DDDDDDC0000DDDD30009DDDDDDDDDDDDDDD2000ADDDDDD600000000
000000006DDDDDDC0000DDDD30009DDDDDDDDDDDDDDD2000ADDDDDD600000000
000000006DDDDDDC0000DDDD30009DDDDDDDDDDDDDDD2000ADDDDDD600000000
000000006DDDDDDC0000AAAA20007AAAAAAAAAAAAAAA1000ADDDDDD600000000
000000006DDDDDDC00000000000000000000000000000000ADDDDDD600000000
000000006DDDDDDC00000000000000000000000000000000ADDDDDD600000000
000000006DDDDDDC00000000000000000000000000000000ADDDDDD600000000
000000006DDDDDDC00002222000012222222222222220000ADDDDDD600000000
000000006DDDDDDC0000DDDD30009DDDDDDDDDDDDDDD2000ADDDDDD600000000
000000006DDDDDDC0000DDDD30009DDDDDDDDDDDDDDD2000ADDDDDD600000000
000000006DDDDDDC0000DDDD30009DDDDDDDDDDDDDDD2000ADDDDDD600000000
000000006DDDDDDC0000DDDD30009DDDDDDDDDDDDDDD2000ADDDDDD600000000
000000006DDDDDDC00008888100068888888888888881000ADDDDDD600000000
000000006DDDDDDC00000000000000000000000000000000ADDDDDD600000000
000000006DDDDDDC00000000000000000000000000000000ADDDDDD600000000
000000006DDDDDDC00000000000000000000000000000000ADDDDDD600000000
000000006DDDDDDC33333333333333333333333333333333BDDDDDD600000000
000000006DDDDDDDDDDDDDDDDDDDDDDDDDDDDDDDDDDDDDDDDDDDDDD600000000
000000006DDDDDDDDDDDDDDDDDDDDDDDDDDDDDDDDDDDDDDDDDDDDDD600000000
000000006DDDDDDDDDDDDDDDDDDDDDDDDDDDDDDDDDDDDDDDDDDDDDD600000000
000000006DDDDDDDDDDDDDDDDDDDDDDDDDDDDDDDDDDDDDDDDDDDDDD600000000
000000006DDDDDDDDDDDDDDDDDDDDDDDDDDDDDDDDDDDDDDDDDDDDDD600000000
000000006DDDDDDDDDDDDDDDDDDDDDDDDDDDDDDDDDDDDDDDDDDDDDD600000000
000000006DDDDDDDDDDDDDDDDDDDDDDDDDDDDDDDDDDDDDDDDDDDDDD600000000
}

!define OCI_INVOICE(_color)                                 SPRITE_PUT(          OCI_INVOICE          oci_invoice, _color)
!define OCI_INVOICE(_color, _scale)                         SPRITE_PUT(          OCI_INVOICE          oci_invoice, _color, _scale)
!define OCI_INVOICE(_color, _scale, _alias)                 SPRITE_ENT(  _alias, OCI_INVOICE,         oci_invoice, _color, _scale)
!define OCI_INVOICE(_color, _scale, _alias, _shape)         SPRITE_ENT(  _alias, OCI_INVOICE,         oci_invoice, _color, _scale, _shape)
!define OCI_INVOICE(_color, _scale, _alias, _shape, _label) SPRITE_ENT_L(_alias, OCI_INVOICE, _label, oci_invoice, _color, _scale, _shape)
skinparam folderBackgroundColor<<OCI_INVOICE>> White
