sprite $oci_billing [64x64/16] {
7888888888888888888888888888888888888888888888888888888888888886
ADDDDDDDDDDDDDDDDDDDDDDDDDDDDDDDDDDDDDDDDDDDDDDDDDDDDDDDDDDDDDD9
ADDDDDDDDDDDDDDDDDDDDDDDDDDDDDDDDDDDDDDDDDDDDDDDDDDDDDDDDDDDDDD9
ADDDDDDDDDDDDDDDDDDDDDDDDDDDDDDDDDDDDDDDDDDDDDDDDDDDDDDDDDDDDDD9
4555555556DDDDDDDDDDDDDDDDDDDDDDDDDDDDDDDDDDDDDDDDDDDD5555555553
0000000001DDDDDDDDDDDDDDDDDDDDDDDDDDDDDDDDDDDDDDDDDDDD0000000000
0000000001DDDDDDDDDDDDDDDDDDDDDDDDDDDDDDDDDDDDDDDDDDDD0000000000
0000000001DDDDDDDDDDDDDDDDDDDDDDDDDDDDDDDDDDDDDDDDDDDD0000000000
0000000001DDDDDDDDDDDDDDDDDDDDDDDDDDDDDDDDDDDDDDDDDDDD0000000000
0000000001DDDDDDDDDDDDDDDDDDDDDDDDDDDDDDDDDDDDDDDDDDDD0000000000
0000000001DDDDDDDDDDDDDDDDDDDDDDDDDDDDDDDDDDDDDDDDDDDD0000000000
0000000001DDDDDDDDDDDDDDDDDDDDDDDDDDDDDDDDDDDDDDDDDDDD0000000000
0000000001DDDDDDDDDDDDDDDDDDDDDDDDDDDDDDDDDDDDDDDDDDDD0000000000
0000000001DDDDD93336C73D47DDD47DDD56B38D93BD7326CDDDDD0000000000
0000000001DDDDD80540860D14DDD14DDD23A00A70B60442CDDDDD0000000000
0000000001DDDDD80551B60D14DDD14DDD23A00160B13D87ADDDDD0000000000
0000000001DDDDD80440860D14DDD14DDD23A06000B04C205DDDDD0000000000
0000000001DDDDD80670460D1288B1288B23A08800B406705DDDDD0000000000
0000000001DDDDD80013A60D100082000834A08D60BC5003ADDDDD0000000000
0000000001DDDDDDDDDDDDDDDDDDDDDDDDDDDDDDDDDDDDDDDDDDDD0000000000
0000000001DDDDDDDDDDDDDDDDDDDDDDDDDDDDDDDDDDDDDDDDDDDD0000000000
0000000001DDDDDDDDDDDDDDDDDDDDDDDDDDDDDDDDDDDDDDDDDDDD0000000000
0000000001DDDDDDDDDDDDDDDDDDDDDDDDDDDDDDDDDDDDDDDDDDDD0000000000
0000000001DDDDDDDDDDDDDDDDDDDDDDDDDDDDDDDDDDDDDDDDDDDD0000000000
0000000001DDDDDDDDDDDDDDDDDDDDDDDDDDDDDDDDDDDDDDDDDDDD0000000000
0000000001DDDDDDDDDDDDDDDDDDDDDDDDDDDDDDDDDDDDDDDDDDDD0000000000
0000000001DDDDDDDDDDDDDDDDDDDDDDB55555555555556DDDDDDD0000000000
0000000001DDDDDDDDDDDDDDDDDDDDDD900000000000002DDDDDDD0000000000
0000000001DDDDDDDDDDDDCBCDDDDDDD900000000000002DDDDDDD0000000000
0000000001DDDDDDDDDDDD30ADDDDDDD900000000000002DDDDDDD0000000000
0000000001DDDDDDDDDA4100148DDDDDB77777777777778DDDDDDD0000000000
0000000001DDDDDDDD7000000001CDDDDDDDDDDDDDDDDDDDDDDDDD0000000000
0000000001DDDDDDDC0000000004DDDDDDDDDDDDDDDDDDDDDDDDDD0000000000
0000000001DDDDDDD9000C30A71BDDDDDDDDDDDDDDDDDDDDDDDDDD0000000000
0000000001DDDDDDD9000630BDDDDDDDCBBBBBBBBBBBBBBDDDDDDD0000000000
0000000001DDDDDDDC00000048CDDDDD900000000000002DDDDDDD0000000000
0000000001DDDDDDDD8000000019DDDD900000000000002DDDDDDD0000000000
0000000001DDDDDDDDDB51000000ADDD900000000000002DDDDDDD0000000000
0000000001DDDDDDDDDDDD3030005DDDA00000000000003DDDDDDD0000000000
0000000001DDDDDDDD44BD40C4004DDDDDDDDDDDDDDDDDDDDDDDDD0000000000
0000000001DDDDDDD900021050006DDDDDDDDDDDDDDDDDDDDDDDDD0000000000
0000000001DDDDDDD40000000001CDDDDDDDDDDDDDDDDDDDDDDDDD0000000000
0000000001DDDDDDDD930000004BDDDDDDDDDDDDDDDDDDDDDDDDDD0000000000
0000000001DDDDDDDDDDCA108CDDDDDDA33333333333335DDDDDDD0000000000
0000000001DDDDDDDDDDDD20BDDDDDDD900000000000002DDDDDDD0000000000
0000000001DDDDDDDDDDDDA9CDDDDDDD900000000000002DDDDDDD0000000000
0000000001DDDDDDDDDDDDDDDDDDDDDD900000000000002DDDDDDD0000000000
0000000001DDDDDDDDDDDDDDDDDDDDDDC88888888888889DDDDDDD0000000000
0000000001DDDDDDDDDDDDDDDDDDDDDDDDDDDDDDDDDDDDDDDDDDDD0000000000
0000000001DDDDDDDDDDDDDDDDDDDDDDDDDDDDDDDDDDDDDDDDDDDD0000000000
0000000001DDDDDDDDDDDDDDDDDDDDDDDDDDDDDDDDDDDDDDDDDDDD0000000000
0000000001DDDDDDDDDDDDDDDDDDDDDDDDDDDDDDDDDDDDDDDDDDDD0000000000
0000000001DDDDDDDDDDDDDDDDDDDDDDDDDDDDDDDDDDDDDDDDDDDD0000000000
0000000001DDDDDDDDDDDDDDDDDDDDDDDDDDDDDDDDDDDDDDDDDDDD0000000000
0000000001DDDDDDDDDDDDDDDDDDDDDDDDDDDDDDDDDDDDDDDDDDDD0000000000
0000000001DDDDDDDDDDDDDDDDDDDDDDDDDDDDDDDDDDDDDDDDDDDD0000000000
0000000001DDDDDDDDDDDDDDDDDDDDDDDDDDDDDDDDDDDDDDDDDDDD0000000000
0000000001DDDDDDDDDDDDDDDDDDDDDDDDDDDDDDDDDDDDDDDDDDDD0000000000
0000000001DDDDDDDDDDDDDDDDDDDDDDDDDDDDDDDDDDDDDDDDDDDD0000000000
0000000001DDDDDDDCDDDDDDDDDDDDDCDDDDDDDDDDDDDDCDDDDDDD0000000000
0000000001DDDDD9206CDDDDDDDDDD8118DDDDDDDDDDC603ADDDDD0000000000
0000000001DDDA3000017CDDDDDD81000028DDDDDDC7000003ADDD0000000000
0000000001DB40000000018DDD92000000003ADDD81000000004BD0000000000
0000000001400000000000027300000000000047100000000000050000000000
}

!define OCI_BILLING(_color)                                 SPRITE_PUT(          OCI_BILLING          oci_billing, _color)
!define OCI_BILLING(_color, _scale)                         SPRITE_PUT(          OCI_BILLING          oci_billing, _color, _scale)
!define OCI_BILLING(_color, _scale, _alias)                 SPRITE_ENT(  _alias, OCI_BILLING,         oci_billing, _color, _scale)
!define OCI_BILLING(_color, _scale, _alias, _shape)         SPRITE_ENT(  _alias, OCI_BILLING,         oci_billing, _color, _scale, _shape)
!define OCI_BILLING(_color, _scale, _alias, _shape, _label) SPRITE_ENT_L(_alias, OCI_BILLING, _label, oci_billing, _color, _scale, _shape)
skinparam folderBackgroundColor<<OCI_BILLING>> White
