sprite $oci_iot [64x64/16] {
0000000000000000000000000000028BB8200000000000000000000000000000
00000000000000000000000000004DDDDDD40000000000000000000000000000
00005BDC93000000000000000002DDDDDDDD20000000000000000028CCA40000
0009DDDDDD500000000000000008DDDDDDDD800000000000000004CDDDDD8000
005DDDDDDDC1000000000000000BDDDDDDDDA0000000000000001CDDDDDDD500
00BDDDDDDDD7000000000000000BDDDDDDDDA0000000000000006DDDDDDDDA00
00DDDDDDDDD90000000000000008DDDDDDDD80000000000000008DDDDDDDDD00
00CDDDDDDDD90000000000000002DDDDDDDD20000000000000008DDDDDDDDC00
009DDDDDDDD700000000000000004CDDDDD500000000000000006DDDDDDDD900
003DDDDDDDDD500000000000000002DDDD300000000000000004DDDDDDDDD300
0004CDDDDDDDD50000000000000000DDDD00000000000000004DDDDDDDDD5000
000016886DDDDD5000000000000000DDDD0000000000000004DDDDD799720000
0000000004DDDDD400000000000000DDDD000000000000004DDDDD5000000000
00000000004DDDDD40000000000000DDDD00000000000004DDDDD50000000000
000000000005DDDDD4000000000000DDDD0000000000004DDDDD500000000000
0000000000005DDDDD400000000000DDDD000000000004DDDDD5000000000000
00000000000005DDDDD4000000000017CD00000000004DDDDD50000000000000
000000000000005DDDB30000000000001A0000000005DDDDD500000000000000
0000000000000005DA1000000000000000000000005DDDDD5000000000000000
000000000000000040000002678740000000000005DDDDD50000000000000000
0000000000000000000003ADDDDDDC5000000000016CDD500000000000000000
000000000000000000005DDDDDDDDDD9000000000002B5000000000000000000
00000000000000000005DDDDDDDDDDDD90000000000000000000000000000000
0000000000000000001CDDDDDDDDDDDDD5015764000000000000000000000000
0000000000000000007DDDDDDDDDDDDDDC8DDDDDC40000000000000000000000
000000000000000000CDDDDDDDDDDDDDDDDDDDDDDD5000000000000000000000
000000000000000002DDDDDDDDDDDDDDDDDDDDDDDDD100000000000000000000
000000000000000003DDDDDDDDDDDDDDDDDDDDDDDDD700000000000000000000
000000000000000002DDDDDDDDDDDDDDDDDDDDDDDDDB00000000000000000000
000000000000000000DDDDDDDDDDDDDDDDDDDDDDDDDC41000000000000000000
00000000000000004BDDDDDDDDDDDDDDDDDDDDDDDDDDDDA40000000000000000
0000000000000008DDDDDDDDDDCCDDDDDCCCCCDDDDDDDDDD8000000000000000
000000000000008DDDDDDDDDDD23DDDDD20000BDDDDDDDDDD800000000000000
00000000000004DDDDDDDDDDDD23D9227A8059CDDDDDDDDDDD40000000000000
0000000000000ADDDDDDDDDDDD23B03509C07DDDDDDDDDDDDDA0000000000000
0000000000001DDDDDDDDDDDDD23909C06C07DDDDDDDDDDDDDD1000000000000
0000000000003DDDDDDDDDDDDD23C1130AC07DDDDDDDDDDDDDD2000000000000
0000000000003DDDDDDDDDDDDD67DB55ADC59DDDDDDDDDDDDDD3000000000000
0000000000001DDDDDDDDDDDDDDDDDDDDDDDDDDDDDDDDDDDDDD1000000000000
0000000000000BDDDDDDDDDDDDDDDDDDDDDDDDDDDDDDDDDDDDB0000000000000
00000000000006DDDDDDDDDDDDDDDDDDDDDDDDDDDDDDDDDDDD50000000000000
00000000000000ADDDDDDDDDDDDDDDDDDDDDDDDDDDDDDDDDDA00000000000000
000000000000001BDDDDDDDDDDDDDDDDDDDDDDDDDDDDDDDDB100000000000000
00000000000000008DDDDDDDDDDDDDDDDDDDDDDDDDDDDDD80000000000000000
0000000000000000015788888888888888888888888875100000000000000000
0000000000000000000000000000000000000000000000000000000000000000
0000000000000000000000000000000000000000000000000000000000000000
00000000000005A4000000000000000000000000000000003A40000000000000
0000000000005DDDC800000000000033330000000000018BDDD4000000000000
000000000005DDDDD4000000000000DDDD0000000000005DDDDD400000000000
00000000005DDDDD40000000000000DDDD00000000000005DDDDD40000000000
0000000005DDDDD400000000000000DDDD000000000000005DDDDD4000000000
000026887DDDDD4000000000000000DDDD0000000000000005DDDDD788610000
0005DDDDDDDDD40000000000000000DDDD00000000000000005DDDDDDDDC4000
004DDDDDDDDD400000000000000003DDDD200000000000000005DDDDDDDDD300
00ADDDDDDDD600000000000000005DDDDDC400000000000000007DDDDDDDD900
00DDDDDDDDD80000000000000002DDDDDDDD20000000000000009DDDDDDDDC00
01DDDDDDDDD80000000000000008DDDDDDDD80000000000000009DDDDDDDDD00
00BDDDDDDDD6000000000000000BDDDDDDDDA0000000000000007DDDDDDDDB00
006DDDDDDDC1000000000000000BDDDDDDDDA0000000000000001DDDDDDDD500
0009DDDDDD400000000000000008DDDDDDDD800000000000000005DDDDDD9000
00005BDC93000000000000000002DDDDDDDD20000000000000000039CDB50000
00000000000000000000000000004DDDDDD40000000000000000000000000000
0000000000000000000000000000028AA8200000000000000000000000000000
}

!define OCI_IOT(_color)                                 SPRITE_PUT(          OCI_IOT          oci_iot, _color)
!define OCI_IOT(_color, _scale)                         SPRITE_PUT(          OCI_IOT          oci_iot, _color, _scale)
!define OCI_IOT(_color, _scale, _alias)                 SPRITE_ENT(  _alias, OCI_IOT,         oci_iot, _color, _scale)
!define OCI_IOT(_color, _scale, _alias, _shape)         SPRITE_ENT(  _alias, OCI_IOT,         oci_iot, _color, _scale, _shape)
!define OCI_IOT(_color, _scale, _alias, _shape, _label) SPRITE_ENT_L(_alias, OCI_IOT, _label, oci_iot, _color, _scale, _shape)
skinparam folderBackgroundColor<<OCI_IOT>> White
