sprite $oci_onprem [64x64/16] {
0000000000000000000000000000000000100000000000000000000000000000
0000000000000000000000000000000006C40000000000000000000000000000
000000000000000000000000000000008DDD5000000000000000000000000000
00000000000000000000000000000009DDDDD700000000000000000000000000
000000000000000000000000000001ADDDDDDD80000000000000000000000000
00000000000000000000000000001BDDDDDDDDD9000000000000000000000000
0000000000000000000000000002BDDDDDDDDDDDA10000000000000000000000
000000000000000000000000003CDDDDDDDDDDDDDB1000000000000000000000
00000000000000000000000004CDDDDDDDDDDDDDDDC200000000000000000000
0000000000000000000000005DDDDDDDDDDDDDDDDDDC30000000000000000000
000000000000000000000006DDDDDDDDDDDDDDDDDDDDC4000000000000000000
00000000000000000000008DDDDDDDDDDDDDDDDDDDDDDD600000000000000000
0000000000000000000009DDDDDDDDDDDDDDDDDDDDDDDDD70000000000000000
00000000000000000001ADDDDDDDDDDDDDDDDDDDDDDDDDDD8000000000000000
0000000000000000001BDDDDDDDDDDDDDDDDDDDDDDDDDDDDD900000000000000
000000000000000002BDDDDDDDDDDDDDDDDDDDDDDDDDDDDDDDA1000000000000
00000000000000003CDDDDDDDDDDDDDDDDDDDDDDDDDDDDDDDDDB100000000000
0000000000000004CDDDDDDDDDDDDDDDDDDDDDDDDDDDDDDDDDDDC20000000000
000000000000005DDDDDDDDDDDDDDDDDDDDDDDDDDDDDDDDDDDDDDC3000000000
00000000000006DDDDDDDDDDDDDDDDDDDDDDDDDDDDDDDDDDDDDDDDD400000000
0000000000008DDDD9559DC48DA4A5336CA4457D94444C45DD64CDDD50000000
000000000009DDDD803207B0099093140290220660333C007900CDDDD7000000
0000000001ADDDDD14DD31B00170933D30909C0460688D000100CDDDDD800000
000000001BDDDDDD05DD40B0500093010590000960224D041140CDDDDDD90000
00000002BDDDDDDD307704B078009318AD90612C60788C058950CDDDDDDDA100
0000003CDDDDDDDDB3003CB07D50933DDD90990660000A05DD50CDDDDDDDDB10
000004CDDDDDDDDDDDCCDDDCCDDCDDDDDDDCDDCCCCCCCDCCDDCCDDDDDDDDDDC2
00000000000002DDDDDDDDDDDDDDDDDDDDDDDDDDDDDDDDDDDDDDDDC000000000
00000000000001DDDDDDDDDDDDDDDDDDDDDDDDDDDDDDDDDDDDDDDDC000000000
00000000000001DDDDDDDDDDDDDDDDDDDDDDDDDDDDDDDDDDDDDDDDC000000000
00000000000001DDDDDDDDDDDDDDDDDDDDDDDDDDDDDDDDDDDDDDDDC000000000
00000000000001DDDDDDDDDDDDDDDDDDDDDDDDDDDDDDDDDDDDDDDDC000000000
00000000000001DDDDDDDDDDDDDDCCCCCCCCCCCCDDDDDDDDDDDDDDC000000000
000000000000001111111119DDDD7000000000009DDDDDDDDDDDDDC000000000
000000000000000000000008DDDD7000000000009DDDDDDDDDDDDDC000000000
000000000000000000000008DDDD7000000000009DDDDDDDDDDDDDC000000000
000000000000000000000008DDDD7000000000009DDDDDDDDDDDDDC000000000
9AAAAAAAAAAAAAAAAAA20008DDDD7000000000009DDDDDDDDDDDDDC000000000
BDDDDDDDDDDDDDDDDDD20008DDDD7000000000009DDDDDDDDDDDDDC000000000
BB1A64DDDDC0000006D20008DDDD7000000000009DDDDDDDDDDDDDC000000000
BC5C98DDDDC3333338D20008DDDD7000000000009DDDDDDDDDDDDDC000000000
BDDDDDDDDDDDDDDDDDD20008DDDD7000000000009DDDDDDDDDDDDDC000000000
677777777777777777710008DDDD7000000000009DDDDDDDDDDDDDC000000000
000000000000000000000008DDDD7000000000009DDDDDDDDDDDDDC000000000
788888888888888888810008DDDD7000000000009DDDDDDDDDDDDDC000000000
BDDDDDDDDDDDDDDDDDD20008DDDD7000000000009DDDDDDDDDDDDDC000000000
BC4B76DDDDC1111117D20008DDDD7000000000009DDDDDDDDDDDDDC000000000
BC3B76DDDDC2222227D20008DDDD7000000000009DDDDDDDDDDDDDC000000000
BDDDDDDDDDDDDDDDDDD20008DDDD7000000000009DDDDDDDDDDDDDC000000000
788888888888888888810008DDDD7000000000009DDDDDDDDDDDDDC000000000
0000000000000000000000047777300000000000577777777777776000000000
6777777777777777777100000000000000000000000000000000000000000000
BDDDDDDDDDDDDDDDDDD200000000000000000000000000000000000000000000
BC6C98DDDDC4444448D200000000000000000000000000000000000000000000
BB1A64DDDDC0000006D200000000000000000000000000000000000000000000
BDDDDDDDDDDDDDDDDDD200000000000000000000000000000000000000000000
9AAAAAAAAAAAAAAAAAA200000000000000000000000000000000000000000000
0000000000000000000000000000000000000000000000000000000000000000
3444444444444444444100000000000000000000000000000000000000000000
BDDDDDDDDDDDDDDDDDD200000000000000000000000000000000000000000000
BD7CA9DDDDD6666669D200000000000000000000000000000000000000000000
BB0A53DDDDC0000006D200000000000000000000000000000000000000000000
BDDDDDDDDDDAAAAAABD200000000000000000000000000000000000000000000
BDDDDDDDDDDDDDDDDDD200000000000000000000000000000000000000000000
}

!define OCI_ONPREM(_color)                                 SPRITE_PUT(          OCI_ONPREM          oci_onprem, _color)
!define OCI_ONPREM(_color, _scale)                         SPRITE_PUT(          OCI_ONPREM          oci_onprem, _color, _scale)
!define OCI_ONPREM(_color, _scale, _alias)                 SPRITE_ENT(  _alias, OCI_ONPREM,         oci_onprem, _color, _scale)
!define OCI_ONPREM(_color, _scale, _alias, _shape)         SPRITE_ENT(  _alias, OCI_ONPREM,         oci_onprem, _color, _scale, _shape)
!define OCI_ONPREM(_color, _scale, _alias, _shape, _label) SPRITE_ENT_L(_alias, OCI_ONPREM, _label, oci_onprem, _color, _scale, _shape)
skinparam folderBackgroundColor<<OCI_ONPREM>> White
