sprite $oci_config [64x64/16] {
0000000000000000036776410000000000000000000000000000000000000000
0000000000000049DDDDDDDDA500000000000000000000000000000000000000
0000000000002ADDDDDDDDDDDDC4000000000000000000000000000000000000
000000000005DDDDDDDDDDDDDDDD900000000000000000000000000000000000
00000000005DDDDDDDDDDDDDDDDDDA0000000000000000000000000000000000
0000000004DDDDDDDDDDDDDDDDDDDD9000000000000000000000000000000000
000000001CDDDDDDDDDDDDDDDDDDDDD500000000000000000000000000000000
000000008DDDDDDDDDDDDDDDDDDDDDDC10000000000000000000000000000000
00000001DDDDDDDDDDDDDDDDDDDDDDDD60000000000000000000000000000000
000000028BDDDDDDDDDDDDDDDDDDDDDDC0000000000000000000000000000000
0000000000148BDDDDDDDDDDDDDDDDDDD2000000000000000000000000000000
00000000000000269CDDDDDDDDDDDDDDD5000000000000000000000000000000
000000000000000000269DDDDDDDDDDDD7000000000000000000000000000000
0000000000000000000004DDDDDDDDDDD8000000000000000000000000000000
0000003DA7300000000007DDDDDDDDDDD8000000000000000000000000000000
0000002DDDDC962000000BDDDDDDDDDDD7000000000000000000000000000000
0000000DDDDDDDDC20001DDDDDDDDDDDD5000000000000000000000000000000
0000000ADDDDDDDC00005DDDDDDDDDDDD2000000000000000000000000000000
00000006DDDDDDD900008DDDDDDDDDDDA0000000000000000000000000000000
00000001CDDDDDD60000BDDDDDDDDDDD50000000000000000000000000000000
000000007DDDDDD20002DDDDDDDDDDDD90000000000000000000000000000000
000000000BDDDDC00005DDDDDDDDDDDDD5000000000000000000000000000000
0000000002CDDD800009DDDDDDDDDDDDDC200000000000000000000000000000
00000000003CDD50000CDDDDDDDDDDDDDDB00000000000000000000000000000
000000000002BD10003DDDDDDDDDDDDDDDD80000000000000000000000000000
0000000000000600006DDDDDDDDDB647CDDD4000000000000000000000000000
000000000000000000ADDDDDDDDC10103DDDC100000000000000000000000000
00000000000000000024438DDDD708D909DDDA00000000000000000000000000
00000000000000000000000BDDD60CDC18DDDD60000000000000000000000000
000000000000000000000002CDDA04ADDCDDDDD3000000000000000000000000
0000000000000000000000005DDD706D7228DDDB100000000000000000000000
00000000000000000000000009DDDCC702307DDD900000000000000000000000
00000000000000000000000000BDDDD13DD41DDDD50000000000000000000000
000000000000000000000000003DDDD15DD50DDDDC2000000000000000000000
0000000000000000000000000006DDD606604DADDDB000000000000000000000
0000000000000000000000000000ADDC5003C609DDD800000000000000000000
00000000000000000000000000001CDDDCCB3009DDDD40000000000000000000
000000000000000000000000000004DDDD91020CBCDDC1000000000000000000
0000000000000000000000000000007DDD72A33805DDDA000000000000000000
0000000000000000000000000000000BDDDCC0102BCDDD600000000000000000
00000000000000000000000000000002CDDD9004C41CDDD30000000000000000
000000000000000000000000000000005DDDA18A1003DDDB1000000000000000
0000000000000000000000000000000008DDDC7003906DDD9000000000000000
0000000000000000000000000000000000BDDC2270863DDDD500000000000000
00000000000000000000000000000000003DDDBCD52D93CDDC20000000000000
000000000000000000000000000000000006DDDDDCC601BDDDB0000000000000
0000000000000000000000000000000000009DDDDC304CDDDDD7000000000000
0000000000000000000000000000000000001CDDD307B303BDDD400000000000
00000000000000000000000000000000000004DDDBAC10411CDDC10000000000
000000000000000000000000000000000000007DDDD909CC07DDDA0000000000
000000000000000000000000000000000000000ADDD90B3667DDDD6000000000
0000000000000000000000000000000000000002CDDD2340ADDDDDD300000000
00000000000000000000000000000000000000005DDDB105CDDDDDDB00000000
000000000000000000000000000000000000000008DDDDBDDDDDDDDD80000000
000000000000000000000000000000000000000000BDDDDDDC77BDDDD2000000
0000000000000000000000000000000000000000003DDDDDD5001CDDD7000000
00000000000000000000000000000000000000000006DDDDD1000ADDD9000000
000000000000000000000000000000000000000000009DDDD4001CDDD8000000
000000000000000000000000000000000000000000001CDDDC65BDDDD5000000
0000000000000000000000000000000000000000000004DDDDDDDDDDC0000000
00000000000000000000000000000000000000000000007DDDDDDDDD40000000
000000000000000000000000000000000000000000000008DDDDDDC300000000
0000000000000000000000000000000000000000000000004ADDB70000000000
0000000000000000000000000000000000000000000000000000000000000000
}

!define OCI_CONFIG(_color)                                 SPRITE_PUT(          OCI_CONFIG          oci_config, _color)
!define OCI_CONFIG(_color, _scale)                         SPRITE_PUT(          OCI_CONFIG          oci_config, _color, _scale)
!define OCI_CONFIG(_color, _scale, _alias)                 SPRITE_ENT(  _alias, OCI_CONFIG,         oci_config, _color, _scale)
!define OCI_CONFIG(_color, _scale, _alias, _shape)         SPRITE_ENT(  _alias, OCI_CONFIG,         oci_config, _color, _scale, _shape)
!define OCI_CONFIG(_color, _scale, _alias, _shape, _label) SPRITE_ENT_L(_alias, OCI_CONFIG, _label, oci_config, _color, _scale, _shape)
skinparam folderBackgroundColor<<OCI_CONFIG>> White
