sprite $oci_signature [64x64/16] {
0000000000000000000000000000000000000000000000000000000000920000
0000000000000000000000000000000000000000000000000000000008DC4000
000000000000000000000000000000000000000000000000000000006DDDD700
000000000000000000000000000000000000000000000000000000009DDDDD90
0000000000000000000000000000000000000000000000000000000007DDDDD7
00000000000000000000000000000000000000000000000000000000005DDDA0
000000000000000000000000000000000000000000000000000004000003CC10
00000000000000000000000000000000000000000000000000005D8000002300
0000000000000000000000000000000000000000000000000003DDDA10000000
000000000000000000000000000000000000000000000000001CDDDDB2000000
00000000000000000000000000000000000000000000000000BDDDDDDC200000
00000000000000000000000000000000000000000000000009DDDDDDDDC10000
0000000000000000000000000000000000000000000000006DDDDDDDDDD80000
000000000000000234555431000000000000000000000004DDDDDDDDDDDD1000
0000000000037ADDDDDDCBA874000000000000000000002CDDDDDDD7BDDD5000
0000000006BDDDDCA63100000000000000000000000001BDDDDDDD908DDD7000
00000004CDDDD95000000000000000000000000000000ADDDDDDDB007DDD8000
0000006DDDD9200000000000000000000000000000008DDDDDDDC2008DDD7000
000007DDDC4000000000000000000000000000000005DDDDDDDD4000BDDD5000
00004DDDC2000000000000000000000000000000003DDDDDDDD60003DDDD1000
0001CDDC2000000000000000000000000000000001CDDDDDDD800009DDDA0000
0007DDD6000000000000000000000000000000000BDDDDDDDA00005DDDD40000
000CDDC0000000000000000000000000000000009DDDDDDDC10002CDDDB00000
003DDD7000000000000000000000000000000006DDDDDDDD30000BDDDD200000
006DDD400000000000000000000000000000004DDDDDDDD500009DDDD6000000
008DDD20000000000000000000000000000001CDDDDDDD800007DDDD90000000
009DDD100000000000000000000000000000005DDDDDDA00004DDDDB00000000
008DDD3000000000000000000000000000000003CDDDC10002CDDDC200000000
007DDD70000000000000000000000000000000002BDC20001BDDDD3000000000
003DDDC2000000000000000000000000004B100001A50000ADDDD60000000000
000BDDDC30000000000000000000000002CDC20000000008DDDD800000000000
0003DDDDD810000000000000000000001BDDDC300000006DDDDA000000000000
00006DDDDDC820000000000000000000ADDDDDD5000000ADDDC1000000000000
000005DDDDDDDA400000000000000008DDDDDDDC00000008DD30000000000000
0000003BDDDDDDDB400000000000005DDDDDDDD3000000006500000000000000
000000005BDDDDDDD9000000000003DDDDDDDD60000000000000000000000000
00000000004ADDDDDDA0000000001CDDDDDDD800000000000000000000000000
00000000000028DDDDD600000000BDDDDDDDA000000000000000000000000000
000000000000002ADDD900000008DDDDDDDC1000000000000000000000000000
0000000000000006DDDA0000006DDDDDDDD30000000000000000000000000000
000000000000007DDDD7000004DDDDDDDD500000000000000000000000000000
0000000000003BDDDDC100002CDDDDDDD7000000000000000000000000000000
000000000029DDDDDC300000BDDDDDDDA0000000000000000000000000000000
0000000017DDDDDDA1000009DDDDDDDB10000000000000000000000000000000
00000005CDDDDDB40000007DDDDDDDC200000000000000000000000000000000
0000019DDDDDB500000004DDDDDDDD4000000000000000000000000000000000
00002CDDDDB4000000002CDDDDDDD60000000000000000000000000000000000
0003CDDDB40000000001BDDDDDDD900000000000000000000000000000000000
001CDDD6000000000009DDDDDDDB000000000000000000000000000000000000
00ADDC30000000000001ADDDDDC2000000000000000000000000000000000000
03DDB10000000000000009DDDD40000000000000000000000000000000000000
08DD2000000000000000007DD600000000000000000000000000000000000000
0BD8000000000000330000058000000000000000000000000000000000000000
0DD40000000000007D6000000000000000000000000000000000000000000000
0DD2000000000000ADD800000000000000000000000000000000000000000000
0DD1000000000000CDDDA1000000000000000000000000000000000000000000
0BD3000000000002DDDA40000000000000000000000000000000000000000000
06D8000000000005DA4000000000000000000000000000000000000000000000
01BD600000000004200000000000000000000000000000000000000000000000
001ADB7533454100000000000000000000000000000000000000000000000000
0000479A97410000000000000000000000000000000000000000000000000000
0000000000000000000000000000000000000000000000000000000000000000
0000000000000000000000000000000000000000000000000000000000000000
0000000000000000000000000000000000000000000000000000000000000000
}

!define OCI_SIGNATURE(_color)                                 SPRITE_PUT(          OCI_SIGNATURE          oci_signature, _color)
!define OCI_SIGNATURE(_color, _scale)                         SPRITE_PUT(          OCI_SIGNATURE          oci_signature, _color, _scale)
!define OCI_SIGNATURE(_color, _scale, _alias)                 SPRITE_ENT(  _alias, OCI_SIGNATURE,         oci_signature, _color, _scale)
!define OCI_SIGNATURE(_color, _scale, _alias, _shape)         SPRITE_ENT(  _alias, OCI_SIGNATURE,         oci_signature, _color, _scale, _shape)
!define OCI_SIGNATURE(_color, _scale, _alias, _shape, _label) SPRITE_ENT_L(_alias, OCI_SIGNATURE, _label, oci_signature, _color, _scale, _shape)
skinparam folderBackgroundColor<<OCI_SIGNATURE>> White
