sprite $oci_file [64x64/16] {
000000006DDDDDDDDDDDDDDDDDDDDDDDDDD90002400000000000000000000000
000000006DDDDDDDDDDDDDDDDDDDDDDDDDD90003D40000000000000000000000
000000006DDDDDDDDDDDDDDDDDDDDDDDDDD90003DD4000000000000000000000
000000006DDDDDDDDDDDDDDDDDDDDDDDDDD90003DDD400000000000000000000
000000006DDDDDDDDDDDDDDDDDDDDDDDDDD90003DDDD40000000000000000000
000000006DDDDDDDDDDDDDDDDDDDDDDDDDD90003DDDDD4000000000000000000
000000006DDDDDDDDDDDDDDDDDDDDDDDDDD90003DDDDDD400000000000000000
000000006DDDDDDDDDDDDDDDDDDDDDDDDDD90003DDDDDDD40000000000000000
000000006DDDDDDDDDDDDDDDDDDDDDDDDDD90003DDDDDDDD4000000000000000
000000006DDDDDDDDDDDDDDDDDDDDDDDDDD90003DDDDDDDDD400000000000000
000000006DDDDDDDDDDDDDDDDDDDDDDDDDD90003DDDDDDDDDD40000000000000
000000006DDDDDDDDDDDDDDDDDDDDDDDDDD90003DDDDDDDDDDD4000000000000
000000006DDDDDDDDDDDDDDDDDDDDDDDDDD90003DDDDDDDDDDDD400000000000
000000006DDDDDDDDDDDDDDDDDDDDDDDDDD90003DDDDDDDDDDDDD40000000000
000000006DDDDDDDDDDDDDDDDDDDDDDDDDD90003DDDDDDDDDDDDDD4000000000
000000006DDDDDDDDDDDDDDDDDDDDDDDDDD90002CCCCCCCCCCCCCCC300000000
000000006DDDDDDDDDDDDDDDDDDDDDDDDDD90000000000000000000000000000
000000006DDDDDDDDDDDDDDDDDDDDDDDDDD90000000000000000000000000000
000000006DDDDDDDDDDDDDDDDDDDDDDDDDD90000000000000000000000000000
000000006DDDDDDDDDDDDDDDDDDDDDDDDDD90000000000000000000000000000
000000006DDDDDDDDDDDDDDDDDDDDDDDDDDDDDDDDDDDDDDDDDDDDDD600000000
000000006DDDDDDDDDDDDDDDDDDDDDDDDDDDDDDDDDDDDDDDDDDDDDD600000000
000000006DDDDDDDDDDDDDDDDDDDDDDDDDDDDDDDDDDDDDDDDDDDDDD600000000
000000006DDDDDDDDDDDDDDDDDDDDDDDDDDDDDDDDDDDDDDDDDDDDDD600000000
000000006DDDDDDDDDDDDDDDDDDDDDDDDDDDDDDDDDDDDDDDDDDDDDD600000000
000000006DDDDDDDDDDDDDDDDDDDDDDDDDDDDDDDDDDDDDDDDDDDDDD600000000
000000006DDDDDDDDDDDDDDDDDDDDDDDDDDDDDDDDDDDDDDDDDDDDDD600000000
000000006DDDDDDDDDDDDDDDDDDDDDDDDDDDDDDDDDDDDDDDDDDDDDD600000000
000000006DDDDDDDDDDDDDDDDDDDDDDDDDDDDDDDDDDDDDDDDDDDDDD600000000
000000006DDDDDDDDDDDDDDDDDDDDDDDDDDDDDDDDDDDDDDDDDDDDDD600000000
000000006DDDDDDDDDDDDDDDDDDDDDDDDDDDDDDDDDDDDDDDDDDDDDD600000000
000000006DDDDDDDDDDDDDDDDDDDDDDDDDDDDDDDDDDDDDDDDDDDDDD600000000
000000006DDDDDDDDDDDDDDDDDDDDDDDDDDDDDDDDDDDDDDDDDDDDDD600000000
000000006DDDDDDDDDDDDDDDDDDDDDDDDDDDDDDDDDDDDDDDDDDDDDD600000000
000000006DDDDDDDDDDDDDDDDDDDDDDDDDDDDDDDDDDDDDDDDDDDDDD600000000
000000006DDDDDDDDDDDDDDDDDDDDDDDDDDDDDDDDDDDDDDDDDDDDDD600000000
000000006DDDDDDDDDDDDDD98888B8CA9DDDA8889DDDDDDDDDDDDDD600000000
000000006DDDDDDDDDDDDDD4000190A32DDD40001DDDDDDDDDDDDDD600000000
000000006DDDDDDDDDDDDDD41CCC90A32DDD41BBCDDDDDDDDDDDDDD600000000
000000006DDDDDDDDDDDDDD4000590A32DDD40005DDDDDDDDDDDDDD600000000
000000006DDDDDDDDDDDDDD41AAB90A32DDD41BBCDDDDDDDDDDDDDD600000000
000000006DDDDDDDDDDDDDD41DDD90A3000540001DDDDDDDDDDDDDD600000000
000000006DDDDDDDDDDDDDDA9DDDB8C9888AA8889DDDDDDDDDDDDDD600000000
000000006DDDDDDDDDDDDDDDDDDDDDDDDDDDDDDDDDDDDDDDDDDDDDD600000000
000000006DDDDDDDDDDDDDDDDDDDDDDDDDDDDDDDDDDDDDDDDDDDDDD600000000
000000006DDDDDDDDDDDDDDDDDDDDDDDDDDDDDDDDDDDDDDDDDDDDDD600000000
000000006DDDDDDDDDDDDDDDDDDDDDDDDDDDDDDDDDDDDDDDDDDDDDD600000000
000000006DDDDDDDDDDDDDDDDDDDDDDDDDDDDDDDDDDDDDDDDDDDDDD600000000
000000006DDDDDDDDDDDDDDDDDDDDDDDDDDDDDDDDDDDDDDDDDDDDDD600000000
000000006DDDDDDDDDDDDDDDDDDDDDDDDDDDDDDDDDDDDDDDDDDDDDD600000000
000000006DDDDDDDDDDDDDDDDDDDDDDDDDDDDDDDDDDDDDDDDDDDDDD600000000
000000006DDDDDDDDDDDDDDDDDDDDDDDDDDDDDDDDDDDDDDDDDDDDDD600000000
000000006DDDDDDDDDDDDDDDDDDDDDDDDDDDDDDDDDDDDDDDDDDDDDD600000000
000000006DDDDDDDDDDDDDDDDDDDDDDDDDDDDDDDDDDDDDDDDDDDDDD600000000
000000006DDDDDDDDDDDDDDDDDDDDDDDDDDDDDDDDDDDDDDDDDDDDDD600000000
000000006DDDDDDDDDDDDDDDDDDDDDDDDDDDDDDDDDDDDDDDDDDDDDD600000000
000000006DDDDDDDDDDDDDDDDDDDDDDDDDDDDDDDDDDDDDDDDDDDDDD600000000
000000006DDDDDDDDDDDDDDDDDDDDDDDDDDDDDDDDDDDDDDDDDDDDDD600000000
000000006DDDDDDDDDDDDDDDDDDDDDDDDDDDDDDDDDDDDDDDDDDDDDD600000000
000000006DDDDDDDDDDDDDDDDDDDDDDDDDDDDDDDDDDDDDDDDDDDDDD600000000
000000006DDDDDDDDDDDDDDDDDDDDDDDDDDDDDDDDDDDDDDDDDDDDDD600000000
000000006DDDDDDDDDDDDDDDDDDDDDDDDDDDDDDDDDDDDDDDDDDDDDD600000000
000000006DDDDDDDDDDDDDDDDDDDDDDDDDDDDDDDDDDDDDDDDDDDDDD600000000
000000006DDDDDDDDDDDDDDDDDDDDDDDDDDDDDDDDDDDDDDDDDDDDDD600000000
}

!define OCI_FILE(_color)                                 SPRITE_PUT(          OCI_FILE          oci_file, _color)
!define OCI_FILE(_color, _scale)                         SPRITE_PUT(          OCI_FILE          oci_file, _color, _scale)
!define OCI_FILE(_color, _scale, _alias)                 SPRITE_ENT(  _alias, OCI_FILE,         oci_file, _color, _scale)
!define OCI_FILE(_color, _scale, _alias, _shape)         SPRITE_ENT(  _alias, OCI_FILE,         oci_file, _color, _scale, _shape)
!define OCI_FILE(_color, _scale, _alias, _shape, _label) SPRITE_ENT_L(_alias, OCI_FILE, _label, oci_file, _color, _scale, _shape)
skinparam folderBackgroundColor<<OCI_FILE>> White
