sprite $oci_serverrack [64x64/16] {
000000000ADDDDDDDDDDDDDDDDDDDDDDDDDDDDDDDDDDDDDDDDDDDDA000000000
000000000ADDDDDDDDDDDDDDDDDDDDDDDDDDDDDDDDDDDDDDDDDDDDA000000000
000000000ADDDDDDDDDDDDDDDDDDDDDDDDDDDDDDDDDDDDDDDDDDDDA000000000
000000000ADDDDDDDDDDDDDDDDDDDDDDDDDDDDDDDDDDDDDDDDDDDDA000000000
000000000ADDDC77CDDC77CDDDDDDDDDDDD4444444444444446DDDA000000000
000000000ADDD5004DD4005DDDDDDDDDDDD0000000000000003DDDA000000000
000000000ADDD2001DD1002DDDDDDDDDDDD0000000000000003DDDA000000000
000000000ADDD7007DD7007DDDDDDDDDDDD0000000000000003DDDA000000000
000000000ADDDDBBDDDDBBDDDDDDDDDDDDD8888888888888889DDDA000000000
000000000ADDDDDDDDDDDDDDDDDDDDDDDDDDDDDDDDDDDDDDDDDDDDA000000000
000000000ADDDDDDDDDDDDDDDDDDDDDDDDDDDDDDDDDDDDDDDDDDDDA000000000
000000000ADDDDDDDDDDDDDDDDDDDDDDDDDDDDDDDDDDDDDDDDDDDDA000000000
000000000799ADDDD999999999999999999999999999999DDDDBAA8000000000
0000000000001DDDC000000000000000000000000000000CDDD1000000000000
0000000000001DDDC000000000000000000000000000000CDDD1000000000000
0000000000001DDDC000000000000000000000000000000CDDD1000000000000
0000000000001DDDC000000000000000000000000000000CDDD1000000000000
000000000ACCCDDDDCCCCCCCCCCCCCCCCCCCCCCCCCCCCCCDDDDBBB9000000000
000000000ADDDDDDDDDDDDDDDDDDDDDDDDDDDDDDDDDDDDDDDDDDDDA000000000
000000000ADDDDDDDDDDDDDDDDDDDDDDDDDDDDDDDDDDDDDDDDDDDDA000000000
000000000ADDDDDDDDDDDDDDDDDDDDDDDDDDDDDDDDDDDDDDDDDDDDA000000000
000000000ADDDD99DDDD99DDDDDDDDDDDDD6666666666666668DDDA000000000
000000000ADDD5005DD5006DDDDDDDDDDDD0000000000000003DDDA000000000
000000000ADDD2001DD1002DDDDDDDDDDDD0000000000000003DDDA000000000
000000000ADDD6005DD5006DDDDDDDDDDDD0000000000000003DDDA000000000
000000000ADDDDA9DDDD9ADDDDDDDDDDDDD6666666666666668DDDA000000000
000000000ADDDDDDDDDDDDDDDDDDDDDDDDDDDDDDDDDDDDDDDDDDDDA000000000
000000000ADDDDDDDDDDDDDDDDDDDDDDDDDDDDDDDDDDDDDDDDDDDDA000000000
000000000ADDDDDDDDDDDDDDDDDDDDDDDDDDDDDDDDDDDDDDDDDDDDA000000000
000000000799ADDDDBBBBBBBBBBBBBBBBBBBBBBBBBBBBBBDDDDBBB9000000000
0000000000001DDDC000000000000000000000000000000CDDD1000000000000
0000000000001DDDC000000000000000000000000000000CDDD1000000000000
0000000000001DDDC000000000000000000000000000000CDDD1000000000000
0000000000001DDDC000000000000000000000000000000CDDD1000000000000
000000000ACCCDDDDBBBBBBBBBBBBBBBBBBBBBBBBBBBBBBDDDDBBB9000000000
000000000ADDDDDDDDDDDDDDDDDDDDDDDDDDDDDDDDDDDDDDDDDDDDA000000000
000000000ADDDDDDDDDDDDDDDDDDDDDDDDDDDDDDDDDDDDDDDDDDDDA000000000
000000000ADDDDDDDDDDDDDDDDDDDDDDDDDDDDDDDDDDDDDDDDDDDDA000000000
000000000ADDDDAADDDD9ADDDDDDDDDDDDD6666666666666668DDDA000000000
000000000ADDD6006DD5007DDDDDDDDDDDD0000000000000003DDDA000000000
000000000ADDD2001DD1002DDDDDDDDDDDD0000000000000003DDDA000000000
000000000ADDD5005DD5006DDDDDDDDDDDD0000000000000003DDDA000000000
000000000ADDDD88DDDD99DDDDDDDDDDDDD6666666666666668DDDA000000000
000000000ADDDDDDDDDDDDDDDDDDDDDDDDDDDDDDDDDDDDDDDDDDDDA000000000
000000000ADDDDDDDDDDDDDDDDDDDDDDDDDDDDDDDDDDDDDDDDDDDDA000000000
000000000ADDDDDDDDDDDDDDDDDDDDDDDDDDDDDDDDDDDDDDDDDDDDA000000000
0000000008AABDDDDBBBBBBBBBBBBBBBBBBBBBBBBBBBBBBDDDDCCCA000000000
0000000000001DDDC000000000000000000000000000000CDDD1000000000000
0000000000001DDDC000000000000000000000000000000CDDD1000000000000
0000000000001DDDC000000000000000000000000000000CDDD1000000000000
0000000000001DDDC000000000000000000000000000000CDDD1000000000000
0000000009BBBDDDDAAAAAAAAAAAAAAAAAAAAAAAAAAAAAADDDDA997000000000
000000000ADDDDDDDDDDDDDDDDDDDDDDDDDDDDDDDDDDDDDDDDDDDDA000000000
000000000ADDDDDDDDDDDDDDDDDDDDDDDDDDDDDDDDDDDDDDDDDDDDA000000000
000000000ADDDDDDDDDDDDDDDDDDDDDDDDDDDDDDDDDDDDDDDDDDDDA000000000
000000000ADDDDBBDDDDBBDDDDDDDDDDDDD8888888888888889DDDA000000000
000000000ADDD7007DD7007DDDDDDDDDDDD0000000000000003DDDA000000000
000000000ADDD2001DD1002DDDDDDDDDDDD0000000000000003DDDA000000000
000000000ADDD5004DD4005DDDDDDDDDDDD0000000000000003DDDA000000000
000000000ADDDC77CDDC78DDDDDDDDDDDDD4444444444444446DDDA000000000
000000000ADDDDDDDDDDDDDDDDDDDDDDDDDDDDDDDDDDDDDDDDDDDDA000000000
000000000ADDDDDDDDDDDDDDDDDDDDDDDDDDDDDDDDDDDDDDDDDDDDA000000000
000000000ADDDDDDDDDDDDDDDDDDDDDDDDDDDDDDDDDDDDDDDDDDDDA000000000
000000000ADDDDDDDDDDDDDDDDDDDDDDDDDDDDDDDDDDDDDDDDDDDDA000000000
}

!define OCI_SERVERRACK(_color)                                 SPRITE_PUT(          OCI_SERVERRACK          oci_serverrack, _color)
!define OCI_SERVERRACK(_color, _scale)                         SPRITE_PUT(          OCI_SERVERRACK          oci_serverrack, _color, _scale)
!define OCI_SERVERRACK(_color, _scale, _alias)                 SPRITE_ENT(  _alias, OCI_SERVERRACK,         oci_serverrack, _color, _scale)
!define OCI_SERVERRACK(_color, _scale, _alias, _shape)         SPRITE_ENT(  _alias, OCI_SERVERRACK,         oci_serverrack, _color, _scale, _shape)
!define OCI_SERVERRACK(_color, _scale, _alias, _shape, _label) SPRITE_ENT_L(_alias, OCI_SERVERRACK, _label, oci_serverrack, _color, _scale, _shape)
skinparam folderBackgroundColor<<OCI_SERVERRACK>> White
