sprite $oci_serverless [64x64/16] {
DDD400000ADDDDDDDDDDDDDDDDDDDDDDDDDDDDDDDDDDDDDDDDDDDDA000000000
DDDD40000ADDDDDDDDDDDDDDDDDDDDDDDDDDDDDDDDDDDDDDDDDDDDA000000000
DDDDD4000ADDDDDDDDDDDDDDDDDDDDDDDDDDDDDDDDDDDDDDDDDDDDA000000000
6DDDDD4009DDDDDDDDDDDDDDDDDDDDDDDDDDDDDDDDDDDDDDDDDDDDA000000000
06DDDDD401ADDC77CDDC77CDDDDDDDDDDDD4444444444444446DDDA000000000
006DDDDD401AD5004DD4005DDDDDDDDDDDD0000000000000003DDDA000000000
0006DDDDD401A2001DD1002DDDDDDDDDDDD0000000000000003DDDA000000000
00006DDDDD4015007DD7008DDDDDDDDDDDD0000000000000003DDDA000000000
000006DDDDD4019BDDDDBBDDDDDDDDDDDDD8888888888888889DDDA000000000
0000006DDDDD400ADDDDDDDDDDDDDDDDDDDDDDDDDDDDDDDDDDDDDDA000000000
00000006DDDDD400ADDDDDDDDDDDDDDDDDDDDDDDDDDDDDDDDDDDDDA000000000
000000006DDDDD400ADDDDDDDDDDDDDDDDDDDDDDDDDDDDDDDDDDDDA000000000
0000000006DDDDD40189999999999999999999999999999DDDDBAA8000000000
00000000006DDDDD4000000000000000000000000000000CDDD1000000000000
000000000006DDDDD400000000000000000000000000000CDDD1000000000000
0000000000006DDDDD40000000000000000000000000000CDDD1000000000000
00000000000006DDDDD4000000000000000000000000000CDDD1000000000000
0000000009B7006DDDDD4009CCCCCCCCCCCCCCCCCCCCCCCDDDDBBB9000000000
000000000ADD8006DDDDD400ADDDDDDDDDDDDDDDDDDDDDDDDDDDDDA000000000
000000000ADDD8006DDDDD400ADDDDDDDDDDDDDDDDDDDDDDDDDDDDA000000000
000000000ADDDD8006DDDDD400ADDDDDDDDDDDDDDDDDDDDDDDDDDDA000000000
000000000ADDDD94006DDDDD400ADDDDDDD6666666666666668DDDA000000000
000000000ADDD6000006DDDDD400ADDDDDD0000000000000003DDDA000000000
000000000ADDD20018006DDDDD400ADDDDD0000000000000003DDDA000000000
000000000ADDD6006D7006DDDDD400ADDDD0000000000000003DDDA000000000
000000000ADDDD99DDD7006DDDDD400ADDD6666666666666668DDDA000000000
000000000ADDDDDDDDDD8006DDDDD400ADDDDDDDDDDDDDDDDDDDDDA000000000
000000000ADDDDDDDDDDD7006DDDDD400ADDDDDDDDDDDDDDDDDDDDA000000000
000000000ADDDDDDDDDDDD7006DDDDD400ADDDDDDDDDDDDDDDDDDDA000000000
0000000009BBBDDDDCCCCCC6006DDDDD400899999999999DDDDBBB9000000000
0000000000001DDDC00000000006DDDDD40000000000000CDDD1000000000000
0000000000001DDDC000000000006DDDDD4000000000000CDDD1000000000000
0000000000001DDDC0000000000006DDDDD400000000000CDDD1000000000000
0000000000001DDDC00000000000006DDDDD40000000000CDDD1000000000000
0000000009BBBDDDD999999999997006DDDDD4009CCCCCCDDDDBBB9000000000
000000000ADDDDDDDDDDDDDDDDDDD8006DDDDD400ADDDDDDDDDDDDA000000000
000000000ADDDDDDDDDDDDDDDDDDDD8006DDDDD400ADDDDDDDDDDDA000000000
000000000ADDDDDDDDDDDDDDDDDDDDD8006DDDDD400ADDDDDDDDDDA000000000
000000000ADDDDAADDDDAADDDDDDDDDD8006DDDDD4005555557DDDA000000000
000000000ADDD6006DD6007DDDDDDDDDD8006DDDDD400000003DDDA000000000
000000000ADDD2001DD1002DDDDDDDDDDD8006DDDDD40000003DDDA000000000
000000000ADDD5004DD4005DDDDDDDDDDDD0006DDDDD4000003DDDA000000000
000000000ADDDD88CDDD88DDDDDDDDDDDDD54006DDDDD400478DDDA000000000
000000000ADDDDDDDDDDDDDDDDDDDDDDDDDDD8006DDDDD400ADDDDA000000000
000000000ADDDDDDDDDDDDDDDDDDDDDDDDDDDD8006DDDDD400ADDDA000000000
000000000ADDDDDDDDDDDDDDDDDDDDDDDDDDDDD8006DDDDD400ADDA000000000
0000000009BBBDDDDCCCCCCCCCCCCCCCCCCCCCCC7006DDDDD4009A8000000000
0000000000001DDDC0000000000000000000000000006DDDDD40000000000000
0000000000001DDDC00000000000000000000000000006DDDDD4000000000000
0000000000001DDDC000000000000000000000000000006DDDDD400000000000
0000000000001DDDC0000000000000000000000000000006DDDDD40000000000
0000000008AABDDDD99999999999999999999999999997006DDDDD4000000000
000000000ADDDDDDDDDDDDDDDDDDDDDDDDDDDDDDDDDDDD8006DDDDD400000000
000000000ADDDDDDDDDDDDDDDDDDDDDDDDDDDDDDDDDDDDD8006DDDDD40000000
000000000ADDDDDDDDDDDDDDDDDDDDDDDDDDDDDDDDDDDDDD8006DDDDD4000000
000000000ADDDDBBDDDDBBDDDDDDDDDDDDD888888888888883006DDDDD400000
000000000ADDD7007DD7007DDDDDDDDDDDD0000000000000000006DDDDD40000
000000000ADDD2001DD1002DDDDDDDDDDDD00000000000000038006DDDDD4000
000000000ADDD5004DD4005DDDDDDDDDDDD0000000000000003D8006DDDDD400
000000000ADDDC77CDDC77DDDDDDDDDDDDD4444444444444446DD8006DDDDD40
000000000ADDDDDDDDDDDDDDDDDDDDDDDDDDDDDDDDDDDDDDDDDDDD8006DDDDD4
000000000ADDDDDDDDDDDDDDDDDDDDDDDDDDDDDDDDDDDDDDDDDDDDA0006DDDDD
000000000ADDDDDDDDDDDDDDDDDDDDDDDDDDDDDDDDDDDDDDDDDDDDA00006DDDD
000000000ADDDDDDDDDDDDDDDDDDDDDDDDDDDDDDDDDDDDDDDDDDDDA000006DDD
}

!define OCI_SERVERLESS(_color)                                 SPRITE_PUT(          OCI_SERVERLESS          oci_serverless, _color)
!define OCI_SERVERLESS(_color, _scale)                         SPRITE_PUT(          OCI_SERVERLESS          oci_serverless, _color, _scale)
!define OCI_SERVERLESS(_color, _scale, _alias)                 SPRITE_ENT(  _alias, OCI_SERVERLESS,         oci_serverless, _color, _scale)
!define OCI_SERVERLESS(_color, _scale, _alias, _shape)         SPRITE_ENT(  _alias, OCI_SERVERLESS,         oci_serverless, _color, _scale, _shape)
!define OCI_SERVERLESS(_color, _scale, _alias, _shape, _label) SPRITE_ENT_L(_alias, OCI_SERVERLESS, _label, oci_serverless, _color, _scale, _shape)
skinparam folderBackgroundColor<<OCI_SERVERLESS>> White
