sprite $oci_sbom [64x64/16] {
000000006DDDDDDDDDDDDDDDDDDDDDDDDDD90002400000000000000000000000
000000006DDDDDDDDDDDDDDDDDDDDDDDDDD90003D40000000000000000000000
000000006DDDDDDDDDDDDDDDDDDDDDDDDDD90003DD4000000000000000000000
000000006DDDDDDDDDDDDDDDDDDDDDDDDDD90003DDD400000000000000000000
000000006DDDDDDDDDDDDDDDDDDDDDDDDDD90003DDDD40000000000000000000
000000006DDDDDDDDDDDDDDDDDDDDDDDDDD90003DDDDD4000000000000000000
000000006DDDDDDDDDDDDDDDDDDDDDDDDDD90003DDDDDD400000000000000000
000000006DDDDDDDDDDDDDDDDDDDDDDDDDD90003DDDDDDD40000000000000000
000000006DDDDDDDDDDDDDDDDDDDDDDDDDD90003DDDDDDDD4000000000000000
000000006DDDDDDDDDDDDDDDDDDDDDDDDDD90003DDDDDDDDD400000000000000
000000006DDDDDDDDDDDDDDDDDDDDDDDDDD90003DDDDDDDDDD40000000000000
000000006DDDDDDDDDDDDDDDDDDDDDDDDDD90003DDDDDDDDDDD4000000000000
000000006DDDDDDDDDDDDDDDDDDDDDDDDDD90003DDDDDDDDDDDD400000000000
000000006DDDDDDDDDDDDDDDDDDDDDDDDDD90003DDDDDDDDDDDDD40000000000
000000006DDDDDDDDDDDDDDDDDDDDDDDDDD90003DDDDDDDDDDDDDD4000000000
000000006DDDDDDDDDDDDDDDDDDDDDDDDDD90002CCCCCCCCCCCCCCC300000000
000000006DDDDDDDDDDDDDDDDDDDDDDDDDD90000000000000000000000000000
000000006DDDDDDDDDDDDDDDDDDDDDDDDDD90000000000000000000000000000
000000006DDDDDDDDDDDDDDDDDDDDDDDDDD90000000000000000000000000000
000000006DDDDDDDDDDDDDDDDDDDDDDDDDD90000000000000000000000000000
000000006DDDDDDDDDDDDDDDDDDDDDDDDDDDDDDDDDDDDDDDDDDDDDD600000000
000000006DDDDDDDDDDDDDDDDDDDDDDDDDDDDDDDDDDDDDDDDDDDDDD600000000
000000006DDDDDDDDDDDDDDDDDDDDDDDDDDDDDDDDDDDDDDDDDDDDDD600000000
000000006DDDDDDDDDDDDDDDDDDDDDDDDDDDDDDDDDDDDDDDDDDDDDD600000000
000000006DDDDDDDDDDDDDDDDDDDDDDDDDDDDDDDDDDDDDDDDDDDDDD600000000
000000006DDDDDDDDDDDDDDDDDDDDDDDDDDDDDDDDDDDDDDDDDDDDDD600000000
000000006DDDDDDDDDDDDDDDDDDDDDDDDDDDDDDDDDDDDDDDDDDDDDD600000000
000000006DDDDDDDDDDDDDDDDDDDDDDDDDDDDDDDDDDDDDDDDDDDDDD600000000
000000006DDDDDDDDDDDDDDDDDDDDDDDDDDDDDDDDDDDDDDDDDDDDDD600000000
000000006DDDDDDDDDDDDDDDDDDDDDDDDDDDDDDDDDDDDDDDDDDDDDD600000000
000000006DDDDDDDDDDDDDDDDDDDDDDDDDDDDDDDDDDDDDDDDDDDDDD600000000
000000006DDDDDDDDDDDDDDDDDDDDDDDDDDDDDDDDDDDDDDDDDDDDDD600000000
000000006DDDDDDDDDDDDDDDDDDDDDDDDDDDDDDDDDDDDDDDDDDDDDD600000000
000000006DDDDDDDDDDDDDDDDDDDDDDDDDDDDDDDDDDDDDDDDDDDDDD600000000
000000006DDDDDDDDDDDDDDDDDDDDDDDDDDDDDDDDDDDDDDDDDDDDDD600000000
000000006DDDDDDDDDDDDDDDDDDDDDDDDDDDDDDDDDDDDDDDDDDDDDD600000000
000000006DDDDDDDDDDDDAACDB99ACDDCAACDC9BDDA9DDDDDDDDDDD600000000
000000006DDDDDDDDDDD4001B50001CB1001AB00BA00DDDDDDDDDDD600000000
000000006DDDDDDDDDDC03A8D51C50C31AA12B004200DDDDDDDDDDD600000000
000000006DDDDDDDDDDD4003C50104D04DD60B020020DDDDDDDDDDD600000000
000000006DDDDDDDDDDDAB60651B70821CC31B064640DDDDDDDDDDD600000000
000000006DDDDDDDDDDB0120950100A900009B06CC40DDDDDDDDDDD600000000
000000006DDDDDDDDDDDB769DA888BDDB77BDC8ADD98DDDDDDDDDDD600000000
000000006DDDDDDDDDDDDDDDDDDDDDDDDDDDDDDDDDDDDDDDDDDDDDD600000000
000000006DDDDDDDDDDDDDDDDDDDDDDDDDDDDDDDDDDDDDDDDDDDDDD600000000
000000006DDDDDDDDDDDDDDDDDDDDDDDDDDDDDDDDDDDDDDDDDDDDDD600000000
000000006DDDDDDDDDDDDDDDDDDDDDDDDDDDDDDDDDDDDDDDDDDDDDD600000000
000000006DDDDDDDDDDDDDDDDDDDDDDDDDDDDDDDDDDDDDDDDDDDDDD600000000
000000006DDDDDDDDDDDDDDDDDDDDDDDDDDDDDDDDDDDDDDDDDDDDDD600000000
000000006DDDDDDDDDDDDDDDDDDDDDDDDDDDDDDDDDDDDDDDDDDDDDD600000000
000000006DDDDDDDDDDDDDDDDDDDDDDDDDDDDDDDDDDDDDDDDDDDDDD600000000
000000006DDDDDDDDDDDDDDDDDDDDDDDDDDDDDDDDDDDDDDDDDDDDDD600000000
000000006DDDDDDDDDDDDDDDDDDDDDDDDDDDDDDDDDDDDDDDDDDDDDD600000000
000000006DDDDDDDDDDDDDDDDDDDDDDDDDDDDDDDDDDDDDDDDDDDDDD600000000
000000006DDDDDDDDDDDDDDDDDDDDDDDDDDDDDDDDDDDDDDDDDDDDDD600000000
000000006DDDDDDDDDDDDDDDDDDDDDDDDDDDDDDDDDDDDDDDDDDDDDD600000000
000000006DDDDDDDDDDDDDDDDDDDDDDDDDDDDDDDDDDDDDDDDDDDDDD600000000
000000006DDDDDDDDDDDDDDDDDDDDDDDDDDDDDDDDDDDDDDDDDDDDDD600000000
000000006DDDDDDDDDDDDDDDDDDDDDDDDDDDDDDDDDDDDDDDDDDDDDD600000000
000000006DDDDDDDDDDDDDDDDDDDDDDDDDDDDDDDDDDDDDDDDDDDDDD600000000
000000006DDDDDDDDDDDDDDDDDDDDDDDDDDDDDDDDDDDDDDDDDDDDDD600000000
000000006DDDDDDDDDDDDDDDDDDDDDDDDDDDDDDDDDDDDDDDDDDDDDD600000000
000000006DDDDDDDDDDDDDDDDDDDDDDDDDDDDDDDDDDDDDDDDDDDDDD600000000
000000006DDDDDDDDDDDDDDDDDDDDDDDDDDDDDDDDDDDDDDDDDDDDDD600000000
}

!define OCI_SBOM(_color)                                 SPRITE_PUT(          OCI_SBOM          oci_sbom, _color)
!define OCI_SBOM(_color, _scale)                         SPRITE_PUT(          OCI_SBOM          oci_sbom, _color, _scale)
!define OCI_SBOM(_color, _scale, _alias)                 SPRITE_ENT(  _alias, OCI_SBOM,         oci_sbom, _color, _scale)
!define OCI_SBOM(_color, _scale, _alias, _shape)         SPRITE_ENT(  _alias, OCI_SBOM,         oci_sbom, _color, _scale, _shape)
!define OCI_SBOM(_color, _scale, _alias, _shape, _label) SPRITE_ENT_L(_alias, OCI_SBOM, _label, oci_sbom, _color, _scale, _shape)
skinparam folderBackgroundColor<<OCI_SBOM>> White
