sprite $oci_debugging [64x64/16] {
00000000000000000000000000002689A8620000000000000000000000000000
000000000000000000000000004ADDDDDDDDA300000000000000000000000000
00000000000000000000000008DDDDDDDDDDDD80000000000000000000000000
000000000000000000000000ADDDDDDDDDDDDDDA000000000000000000000000
000000000000000000000009DDDDDDDDDDDDDDDD800000000000000000000000
00000000000000000000005DDDDDDDDDDDDDDDDDD50000000000000000000000
0000000000000000000000CDDDDDDDDDDDDDDDDDDB0000000000000000000000
0000000000000000000004DDDDDDDDDDDDDDDDDDDD4000000000000000000000
0000000000000000000008DDDDDDDDDDDDDDDDDDDD8000000000000000000000
000000000000000000000BDDDDDDDDDDDDDDDDDDDDB000000000000000000000
000000000000000000000DDDDDDDDDDDDDDDDDDDDDC000000000000000000000
000000000000000000000DDDDDDDDDDDDDDDDDDDDDD000000000000000000000
000000000000000000000CDDDDDDDDDDDDDDDDDDDDB000000000000000000000
000000000000000000000ADDDDDDDDDDDDDDDDDDDDA000000000000000000000
0000000000000000000006DDDDDDDDDDDDDDDDDDDD6000000000000000000000
0000000000000000000002DDDDDDDDDDDDDDDDDDDD1000000000000000000000
00000000000000000000008DDDDDDDDDDDDDDDDDD80000000000000000000000
00000000000000000000001CDDDDDDDDDDDDDDDDC10000000000000000000000
000000000000000000000003DDDDDDDDDDDDDDDC300000000000000000000000
0000000000000000000000003CDDDDDDDDDDDDC3000000000000000000000000
000000000000000000000000029DDDDDDDDDD910000000000000000000000000
00000000000000000000000000038CDDDDC83000000000000000000000000000
0000000000000000000000000000001321000000000000000000000000000000
00000000000000000000158B9300000000000039B85100000000000000000000
00000000000000000018CDDDDD820000000028DDDDDC81000000000000000000
000000000000000005CDDDDDDDDDB754457BDDDDDDDDDC400000000000000000
00000000000000007DDDDDDDDDDDDDDDDDDDDDDDDDDDDDD70000000000000000
0000000000000008DDDDDDDDDDDDDDDDDDDDDDDDDDDDDDDD6000000000000000
000000000000005DDDDDDDDDDDDDDDDDDDDDDDDDDDDDDDDDD400000000000000
00000000000001CDDDDDDDDDDDDDDDDDDDDDDDDDDDDDDDDDDC10000000000000
00000000000008DDDDDDDDDDDDDDDDDDDDDDDDDDDDDDDDDDDD80000000000000
0000000000000111111111111111111111111111111111111110000000000000
0000000000000000000000000000000000000000000000000000000000000000
0000000000000000000000000000000000000000000000000000000000000000
0000000000000000000000000000000000000000000000000000000000000000
0000000007AAAAAAAAAAAAAAAAAAAAAAAAAAAAAAAAAAAAAAAAAAAA7000000000
0000000008DDDDDDDDDDDDDDDDDDDDDDDDDDDDDDDDDDDDDDDDDDDD8000000000
0000000008DDDDDDDDDDDDDDDDDDDDDDDDDDDDDDDDDDDDDDDDDDDD8000000000
0000000008DDDDDDDDDDDDDDDDDDDDDDDDDDDDDDDDDDDDDDDDDDDD8000000000
0000000008DDDDDDCAAAAAAAAAAAAAAAAAAAABDDDDDDDDDDDDDDDD8000000000
0000000008DDDDDDB000000000000000000005DDDDDDDDDDDDDDDD8000000000
0000000008DDDDDDB222222222222222222226DDDDDDDDDDDDDDDD8000000000
0000000008DDDDDDDDDDDDDDDDDDDDDDDDDDDDDDDDDDDDDDDDDDDD8000000000
0000000008DDDDDDDDDDDDDDDDDDDDDDDDDDDDDDDDDDDDDDDDDDDD8000000000
0000000008DDDDDDDDDD200000000000004BDDDDD710000BDDDDDD8000000000
0000000008DDDDDDDDDD20000000000006DDCA9BDDB1000BDDDDDD8000000000
0000000008DDDDDDDDDDCCCCCCCCCCCCCDD600002ADCCCCDDDDDDD8000000000
0000000008DDDDDDDDDDDDDDDDDDDDDDDD50023000ADDDDDDDDDDD8000000000
0000000008DDDDDDDDDD544444444449D9008DDC402DDDDDDDDDDD8000000000
0000000008DDDDDDDDDD200000000009D406DDDDC00ADDDDDDDDDD8000000000
0000000008DDDDDDDDDD98888888888CD20ADDDDD308DDDDDDDDDD8000000000
0000000008DDDDDDDDDDDDDDDDDDDDDDD309DDDDD209DDDDDDDDDD8000000000
0000000008DDDDDDDDDDDDDDBAAAAAABD603DDDD900BDDDDDDDDDD8000000000
0000000008DDDDDDDDDDDDDD50000003DB004AB7003DDDDDDDDDDD8000000000
0000000008DDDDDDDDDDDDDD72222222BD9000000007DDDDDDDDDD8000000000
0000000008DDDDDDDDDDDDDDDDDDDDDDDDDB511387007DDDDDDDDD8000000000
0000000008DDDDDDDDDDDDDDDDDDDDDDDDDDDDDDDD7007DDDDDDDD8000000000
0000001119DDDDDDDDDD2000000003DDDDDDDDDDDDD7007DDDDDDD9111000000
0000008DDDDDDDDDDDDD2000000003DDDDDDDDDDDDDD7007DDDDDDDDD8000000
0000001CDDDDDDDDDDDDBBBBBBBBBBDDDDDDDDDDDDDDD703DDDDDDDDC1000000
00000006DDDDDDDDDDDDDDDDDDDDDDDDDDDDDDDDDDDDDD8CDDDDDDDD60000000
00000000BDDDDDDDDDDDDDDDDDDDDDDDDDDDDDDDDDDDDDDDDDDDDDDB00000000
000000004DDDDDDDDDDDDDDDDDDDDDDDDDDDDDDDDDDDDDDDDDDDDDD400000000
0000000007888888888888888888888888888888888888888888887000000000
}

!define OCI_DEBUGGING(_color)                                 SPRITE_PUT(          OCI_DEBUGGING          oci_debugging, _color)
!define OCI_DEBUGGING(_color, _scale)                         SPRITE_PUT(          OCI_DEBUGGING          oci_debugging, _color, _scale)
!define OCI_DEBUGGING(_color, _scale, _alias)                 SPRITE_ENT(  _alias, OCI_DEBUGGING,         oci_debugging, _color, _scale)
!define OCI_DEBUGGING(_color, _scale, _alias, _shape)         SPRITE_ENT(  _alias, OCI_DEBUGGING,         oci_debugging, _color, _scale, _shape)
!define OCI_DEBUGGING(_color, _scale, _alias, _shape, _label) SPRITE_ENT_L(_alias, OCI_DEBUGGING, _label, oci_debugging, _color, _scale, _shape)
skinparam folderBackgroundColor<<OCI_DEBUGGING>> White
