sprite $oci_policymanager [64x64/16] {
000000000006DDDDDDDDDDDDDDDDDDDDDDDDDDDDDDDDDDDDDD60000000000000
000000000006DDDDDDDDDDDDDDDDDDDDDDDDDDDDDDDDDDDDDD60000000000000
000000000006DDDDDDDDDDDDDDDDDDDDDDDDDDDDDDDDDDDDDD60000000000000
000000000006DDDDDDDDDDDDDDDDDDDDDDDDDDDDDDDDDDDDDD60000000000000
000000000006DDDDDDDDDDDDDDDDDDDDDDDDDDDDDDDDDDDDDD60000000000000
000000000006DDDDDDDDDDDDDDDDDDDDDDDDDDDDDDDDDDDDDD60000000000000
0000000000049999999999999999999999999999999DDDDDDD60000000000000
0000000000000000000000000000000000000000000CDDDDDD60000000000000
0000000000000000000000000000000000000000000CDDDDDD60000000000000
0000000000000000000000000000000000000000000CDDDDDD60000000000000
2222222222222222222222222222222222222220000CDDDDDD60000000000000
DDDDDDDDDDDDDDDDDDDDDDDDDDDDDDDDDDDDDDC0000CDDDDDD60000000000000
DDDDDDDDDDDDDDDDDDDDDDDDDDDDDDDDDDDDDDC0000CDDDDDD60000000000000
DDDDDDDDDDDDDDDDDDDDDDDDDDDDDDDDDDDDDDC0000CDDDDDD60000000000000
DDDDDDDDDDDDDDDDDDDDDDDDDDDDDDDDDDDDDDC0000CDDDDDD60000000000000
DDDDDDDDDDDDDDDDDDDDDDDDDDDDDDDDDDDDDDC0000CDDDDDD60000000000000
DDDDDDDDDDDDDDDDDDDDDDDDDDDDDDDDDDDDDDC0000CDDDDDD60000000000000
DDDDDDDDDDDDDDDDDDDDDDDDDDDDDDDDDDDDDDC0000CDDDDDD60000000000000
DDDDDDDDDDDDDDDDA62036ADDDDDDDDDDDDDDDC0000CDDDDDD60000000000000
DDDDDDDDDDDDC9510000000159CDDDDDDDDDDDC0000CDDDDDD60000000000000
DDDDDDDDDD9400000000000000049DDDDDDDDDC0000CDDDDDD60000000000000
DDDDDDDDD700000000000000000007DDDDDDDDC0000CDDDDDD60000000000000
DDDDDDDDD100000002697300000001DDDDDDDDC0000CDDDDDD60000000000000
DDDDDDDDD0000048BDDDDDC8510000DDDDDDDDC0000CDDDDDD60000000000000
DDDDDDDDD0000BDDDDDDDDDDDC0000DDDDDDDDC0000CDDDDDD60000000000000
DDDDDDDDD0000BDDDDDDDDDDDD0000DDDDDDDDC0000CDDDDDD60000000000000
DDDDDDDDD0000BDDDDDDDC7DDD0000DDDDDDDDC0000CDDDDDD60000000000000
DDDDDDDDD0000BDDDDDDC307DD0000DDDDDDDDC0000CDDDDDD60000000000000
DDDDDDDDD0000BDDDDDC303CDD0000DDDDDDDDC0000CDDDDDD60000000000000
DDDDDDDDD0000BDB2AC303CDDD0000DDDDDDDDC0000CDDDDDD60000000000000
DDDDDDDDD0000BD700203CDDDD0000DDDDDDDDC0000CDDDDDD60000000000000
DDDDDDDDD0000BDD7003CDDDDC0000DDDDDDDDC0000CDDDDDD60000000000000
DDDDDDDDD10008DDD72CDDDDDA0001DDDDDDDDC0000CDDDDDD60000000000000
DDDDDDDDD30002CDDDDDDDDDD30004DDDDDDDDC0000CDDDDDD60000000000000
DDDDDDDDD800004DDDDDDDDD500009DDDDDDDDC0000CDDDDDD60000000000000
DDDDDDDDDD200004CDDDDDC400003DDDDDDDDDC0000CDDDDDD60000000000000
DDDDDDDDDDB100002ADDDA200001BDDDDDDDDDC0000CDDDDDD60000000000000
DDDDDDDDDDDA0000005A5000001BDDDDDDDDDDC0000CDDDDDD50000000000000
DDDDDDDDDDDDB2000000000002BDDDDDDDDDDDC0000CDDC84100000000000000
DDDDDDDDDDDDDC50000000005CDDDDDDDDDDDDC0000CC7100000000000000000
DDDDDDDDDDDDDDDA20000029DDDDDDDDDDDDDDC0000A10000000000000000000
DDDDDDDDDDDDDDDDD71017DDDDDDDDDDDDDDDDC0000000000001210000000000
DDDDDDDDDDDDDDDDDDDCDDDDDDDDDDDDDDDDDDC00000000059DDDDC940000000
DDDDDDDDDDDDDDDDDDDDDDDDDDDDDDDDDDDDDDC00000005CDDDDDDDDDB300000
DDDDDDDDDDDDDDDDDDDDDDDDDDDDDDDDDDDDDDC0000007DDDDDDDDDDDDD60000
DDDDDDDDDDDDDDDDDDDDDDDDDDDDDDDDDDDDDDC000008DDDDDDDDDDDDDDD6000
DDDDDDDCBBBBBBBBBBBBBBBBBBBBBBBCDDDDDDC00005DDDDDDDDDDDDDDDDD300
DDDDDDD4000000000000000000000004DDDDDD70000CDD4118DDDDDDDDDDDB00
DDDDDDD4000000000000000000000004DDDDDD20006DDD3007BBBBBBBBCDDD40
DDDDDDD4000000000000000000000004DDDDDC0000BDDD3000000000005DDD90
DDDDDDD4000000000000000000000005DDDDDA0001DDDD3000000000005DDDC0
DDDDDDDDDDDDDDDDDDDDDDDDDDDDDDDDDDDDD80003DDDD3000000000005DDDD1
DDDDDDDDDDDDDDDDDDDDDDDDDDDDDDDDDDDDD80004DDDD3000000000005DDDD2
DDDDDDDDDDDDDDDDDDDDDDDDDDDDDDDDDDDDD80003DDDD3000000000005DDDD1
DDDDDDDA88888888888888888888888ADDDDD90001DDDD3000000000005DDDC0
DDDDDDD4000000000000000000000004DDDDDC0000BDDD3000000000005DDD90
DDDDDDD4000000000000000000000004DDDDDD10007DDD3000000000005DDD50
DDDDDDD4000000000000000000000004DDDDDD60001CDD4000000000006DDB00
DDDDDDD6333333333333333333333336DDDDDDB00006DDDDDDDDDDDDDDDDD400
DDDDDDDDDDDDDDDDDDDDDDDDDDDDDDDDDDDDDDC000008DDDDDDDDDDDDDDD7000
DDDDDDDDDDDDDDDDDDDDDDDDDDDDDDDDDDDDDDC0000009DDDDDDDDDDDDD70000
DDDDDDDDDDDDDDDDDDDDDDDDDDDDDDDDDDDDDDC00000006CDDDDDDDDDC400000
DDDDDDDDDDDDDDDDDDDDDDDDDDDDDDDDDDDDDDC0000000017BDDDDDA60000000
DDDDDDDDDDDDDDDDDDDDDDDDDDDDDDDDDDDDDDC0000000000013421000000000
}

!define OCI_POLICYMANAGER(_color)                                 SPRITE_PUT(          OCI_POLICYMANAGER          oci_policymanager, _color)
!define OCI_POLICYMANAGER(_color, _scale)                         SPRITE_PUT(          OCI_POLICYMANAGER          oci_policymanager, _color, _scale)
!define OCI_POLICYMANAGER(_color, _scale, _alias)                 SPRITE_ENT(  _alias, OCI_POLICYMANAGER,         oci_policymanager, _color, _scale)
!define OCI_POLICYMANAGER(_color, _scale, _alias, _shape)         SPRITE_ENT(  _alias, OCI_POLICYMANAGER,         oci_policymanager, _color, _scale, _shape)
!define OCI_POLICYMANAGER(_color, _scale, _alias, _shape, _label) SPRITE_ENT_L(_alias, OCI_POLICYMANAGER, _label, oci_policymanager, _color, _scale, _shape)
skinparam folderBackgroundColor<<OCI_POLICYMANAGER>> White
