sprite $oci_batch [64x64/16] {
0000000000000000000000000000000063000000000000000000000000000000
0000000000000000000000000000006CDDA30000000000000000000000000000
00000000000000000000000000005CDDDDDD9200000000000000000000000000
000000000000000000000000005CDDDDDDDDDD81000000000000000000000000
0000000000000000000000005BDDDDDDDDDDDDDD810000000000000000000000
00000000000000000000005BDDDDDDDDDDDDDDDDDC7000000000000000000000
000000000000000000004BDDDDDDDDDDDDDDDDDDDDDC60000000000000000000
0000000000000000004BDDDDDDDDDDDDDDDDDDDDDDDDDB500000000000000000
00000000000000004BDDDDDDDDDDDDDDDDDDDDDDDDDDDDDB4000000000000000
000000000000004BDDDDDDDDDDDDDDDDDDDDDDDDDDDDDDDDD920000000000000
0000000000004ADDDDDDDDDDDDDDDDDDDDDDDDDDDDDDDDDDDDD8200000000000
00000000004ADDDDDDDDDDDDDDDDDDDDDDDDDDDDDDDDDDDDDDDDD81000000000
000000003ADDDDDDDDDDDDDDDDDDDDDDDDDDDDDDDDDDDDDDDDDDDDC700000000
0000003ADDDDDDDDDDCCCDDDDCBCDCCCCCDDDBCDDCDDCCDDDDDDDDDDC6000000
00003ADDDDDDDDDDDD00006DD607D40000991006B08D50DDDDDDDDDDDDB50000
003ADDDDDDDDDDDDDD04A22DC101DB9039B02958B08D50DDDDDDDDDDDDDDB400
29DDDDDDDDDDDDDDDD01308D80709DD05D909DDDB00000DDDDDDDDDDDDDDDDA2
06CDDDDDDDDDDDDDDD04930C20503DD05DA06DBBB04730DDDDDDDDDDDDDDDC60
0006CDDDDDDDDDDDDD01310A04530BD05DD30102B07D60DDDDDDDDDDDDDC6000
000017DDDDDDDDDDDD5556A95CDB59D58DDD757CC5AD85DDDDDDDDDDDD710000
00000018DDDDDDDDDDDDDDDDDDDDDDDDDDDDDDDDDDDDDDDDDDDDDDDD81000000
0000000028DDDDDDDDDDDDDDDDDDDDDDDDDDDDDDDDDDDDDDDDDDDD9200000000
000000000029DDDDDDDDDDDDDDDDDDDDDDDDDDDDDDDDDDDDDDDDA30000000000
0000000000003ADDDDDDDDDDDDDDDDDDDDDDDDDDDDDDDDDDDDB4000000000000
000037100000003ADDDDDDDDDDDDDDDDDDDDDDDDDDDDDDDDB400000001850000
003ADDD8100000004BDDDDDDDDDDDDDDDDDDDDDDDDDDDDB5000000017CDDB500
2ADDDDDDC6000000005CDDDDDDDDDDDDDDDDDDDDDDDDC6000000006CDDDDDDA2
05BDDDDDDDC6000000006CDDDDDDDDDDDDDDDDDDDDC7000000005CDDDDDDDC60
0005CDDDDDDDC6000000017CDDDDDDDDDDDDDDDDD8100000005BDDDDDDDC6000
000006CDDDDDDDB4000000017CDDDDDDDDDDDDD8100000004BDDDDDDDC700000
00000017CDDDDDDDB4000000018DDDDDDDDDD8200000003ADDDDDDDD81000000
0000000018DDDDDDDDA3000000028DDDDDD9200000003ADDDDDDDD8100000000
000000000028DDDDDDDD9200000003ADDA3000000028DDDDDDDD920000000000
00000000000029DDDDDDDD82000000033000000018DDDDDDDDA3000000000000
000048200000003ADDDDDDDD8100000000000017CDDDDDDDB400000002860000
003ADDD8100000003ADDDDDDDD810000000017CDDDDDDDB4000000018DDDB500
2ADDDDDDD7100000004BDDDDDDDC70000006CDDDDDDDB5000000017DDDDDDDA2
05CDDDDDDDC7000000005CDDDDDDDC6005CDDDDDDDC6000000006CDDDDDDDC60
0006CDDDDDDDC6000000006CDDDDDDDBBDDDDDDDC6000000005CDDDDDDDC7000
000017CDDDDDDDB5000000017CDDDDDDDDDDDDD8100000005BDDDDDDDC710000
00000017CDDDDDDDB5000000017CDDDDDDDDD8100000004BDDDDDDDD81000000
0000000018DDDDDDDDB4000000018DDDDDD8200000003ADDDDDDDD8100000000
000000000028DDDDDDDDA3000000028DD9200000003ADDDDDDDD920000000000
00000000000029DDDDDDDD92000000033000000028DDDDDDDDA3000000000000
000059200000003ADDDDDDDD8200000000000018DDDDDDDDA300000002960000
004BDDD9200000003ADDDDDDDD810000000017CDDDDDDDB4000000028DDDC600
3BDDDDDDD8100000004BDDDDDDDD81000017CDDDDDDDB5000000018DDDDDDDB3
04BDDDDDDDD8100000005BDDDDDDDC7006CDDDDDDDC6000000017CDDDDDDDB50
0005CDDDDDDDC7000000006CDDDDDDDCCDDDDDDDC6000000006CDDDDDDDC6000
000006CDDDDDDDC6000000006CDDDDDDDDDDDDC7000000006CDDDDDDDC600000
00000016CDDDDDDDC6000000017CDDDDDDDDD8100000005BDDDDDDDD81000000
0000000017CDDDDDDDB5000000018DDDDDD8100000004BDDDDDDDD8100000000
000000000018DDDDDDDDB4000000018DD8200000003ADDDDDDDD810000000000
00000000000028DDDDDDDDA300000002200000003ADDDDDDDD92000000000000
0000000000000039DDDDDDDD9200000000000028DDDDDDDDA300000000000000
00000000000000003ADDDDDDDD820000000018DDDDDDDDB40000000000000000
0000000000000000004BDDDDDDDD81000017CDDDDDDDB5000000000000000000
000000000000000000004BDDDDDDDD8117CDDDDDDDB500000000000000000000
00000000000000000000006CDDDDDDDCCDDDDDDDC60000000000000000000000
0000000000000000000000006CDDDDDDDDDDDDC7000000000000000000000000
000000000000000000000000017CDDDDDDDDD810000000000000000000000000
00000000000000000000000000018DDDDDD81000000000000000000000000000
0000000000000000000000000000028DD9200000000000000000000000000000
0000000000000000000000000000000220000000000000000000000000000000
}

!define OCI_BATCH(_color)                                 SPRITE_PUT(          OCI_BATCH          oci_batch, _color)
!define OCI_BATCH(_color, _scale)                         SPRITE_PUT(          OCI_BATCH          oci_batch, _color, _scale)
!define OCI_BATCH(_color, _scale, _alias)                 SPRITE_ENT(  _alias, OCI_BATCH,         oci_batch, _color, _scale)
!define OCI_BATCH(_color, _scale, _alias, _shape)         SPRITE_ENT(  _alias, OCI_BATCH,         oci_batch, _color, _scale, _shape)
!define OCI_BATCH(_color, _scale, _alias, _shape, _label) SPRITE_ENT_L(_alias, OCI_BATCH, _label, oci_batch, _color, _scale, _shape)
skinparam folderBackgroundColor<<OCI_BATCH>> White
