sprite $oci_key [64x64/16] {
0000000000000000000000000000000000000000000000000000000000000000
0000000000000000000000000000000000000000000000000000000000000000
0000000000000000000000000000000000000268ABCCB9741000000000000000
000000000000000000000000000000000017BDDDDDDDDDDDDA50000000000000
0000000000000000000000000000000018DDDDDDDDDDDDDDDDDC500000000000
00000000000000000000000000000005CDDDDDDDDDDDDDDDDDDDDA2000000000
0000000000000000000000000000008DDDDDDDDDDDDDDDDDDDDDDDC400000000
000000000000000000000000000009DDDDDDDDDDDDDDDDDDDDDDDDDD50000000
00000000000000000000000000009DDDDDDDDDDDDDDDDDDDDDDDDDDDD5000000
0000000000000000000000000008DDDDDDDDDDDDDDDDDDDDDDDDDDDDDD300000
000000000000000000000000004DDDDDDDDDDDDDDDDDDDDDB9BDDDDDDDC10000
00000000000000000000000001CDDDDDDDDDDDDDDDDDDDB30002ADDDDDD90000
00000000000000000000000008DDDDDDDDDDDDDDDDDDDC1000000BDDDDDD3000
0000000000000000000000001DDDDDDDDDDDDDDDDDDDD600000003DDDDDDA000
0000000000000000000000007DDDDDDDDDDDDDDDDDDDD200000000DDDDDDD200
000000000000000000000000BDDDDDDDDDDDDDDDDDDDD100000000CDDDDDD700
000000000000000000000003DDDDDDDDDDDDDDDDDDDDD400000001DDDDDDDB00
000000000000000000000006DDDDDDDDDDDDDDDDDDDDD900000007DDDDDDDD10
000000000000000000000008DDDDDDDDDDDDDDDDDDDDDD7000005DDDDDDDDD40
00000000000000000000000ADDDDDDDDDDDDDDDDDDDDDDDA5459DDDDDDDDDD60
00000000000000000000000BDDDDDDDDDDDDDDDDDDDDDDDDDDDDDDDDDDDDDD70
00000000000000000000000CDDDDDDDDDDDDDDDDDDDDDDDDDDDDDDDDDDDDDD70
00000000000000000000000CDDDDDDDDDDDDDDDDDDDDDDDDDDDDDDDDDDDDDD70
00000000000000000000000BDDDDDDDDDDDDDDDDDDDDDDDDDDDDDDDDDDDDDD70
00000000000000000000000ADDDDDDDDDDDDDDDDDDDDDDDDDDDDDDDDDDDDDD50
000000000000000000000008DDDDDDDDDDDDDDDDDDDDDDDDDDDDDDDDDDDDDD30
00000000000000000000001BDDDDDDDDDDDDDDDDDDDDDDDDDDDDDDDDDDDDDD00
0000000000000000000001BDDDDDDDDDDDDDDDDDDDDDDDDDDDDDDDDDDDDDDA00
000000000000000000001BDDDDDDDDDDDDDDDDDDDDDDDDDDDDDDDDDDDDDDD500
00000000000000000001ADDDDDDDDDDDDDDDDDDDDDDDDDDDDDDDDDDDDDDDC100
0000000000000000000ADDDDDDDDDDDDDDDDDDDDDDDDDDDDDDDDDDDDDDDD8000
000000000000000001ADDDDDDDDDDDDDDDDDDDDDDDDDDDDDDDDDDDDDDDDC1000
00000000000000001ADDDDDDDDDDDDDDDDDDDDDDDDDDDDDDDDDDDDDDDDD60000
0000000000000000ADDDDDDDDDDDDDDDDDDDDDDDDDDDDDDDDDDDDDDDDDA00000
000000000000001ADDDDDDDDDDDDDDDDDDDDDDDDDDDDDDDDDDDDDDDDDC100000
00000000000001ADDDDDDDDDDDDDDDDDDDDDDDDDDDDDDDDDDDDDDDDDC2000000
0000000000000ADDDDDDDDDDDDDDDDDDDDDDDDDDDDDDDDDDDDDDDDDC20000000
000000000001ADDDDDDDDDDDDDDDDDDDDDDDDDDDDDDDDDDDDDDDDDA100000000
00000000001ADDDDDDDDDDDDDDDDDDDDDDDDDDDDDDDDDDDDDDDDD60000000000
0000000000ADDDDDDDDDDDDDDDDDDDDDDDDDDDDDDDDDDDDDDDD8100000000000
000000000ADDDDDDDDDDDDDDDDDDDDDDDDDDDDDDDDDDDDDDA610000000000000
00000000ADDDDDDDDDDDDDDDDDDDDDDDDDDDDDDB688876410000000000000000
0000000ADDDDDDDDDDDDDDDDDDDDDDDDDDDDDDB1000000000000000000000000
000000ADDDDDDDDDDDDDDDDDDDDDDDDDDDDDDB10000000000000000000000000
00000ADDDDDDDDDDDDDDDDDDDD7BDDDDDDDDB100000000000000000000000000
0000ADDDDDDDDDDDDDDDDDDDDD0026ADDDDB1000000000000000000000000000
000ADDDDDDDDDDDDDDDDDDDDDD0000015AB10000000000000000000000000000
00ADDDDDDDDDDDDDDDDDDDDDDD00000000000000000000000000000000000000
0ADDDDDDDDDDDDDDDDDDDDDDDD00000000000000000000000000000000000000
ADDDDDDDDDDDDDDDDDDDDDDDDD00000000000000000000000000000000000000
DDDDDDDDDDDDDDDDDDDD42222200000000000000000000000000000000000000
DDDDDDDDDDDDDDDDDDDD20000000000000000000000000000000000000000000
DDDDDDDDDDDDDDDDDDDD20000000000000000000000000000000000000000000
CDDDDDDDDDDDDDDDDDDD20000000000000000000000000000000000000000000
ADDDDDDDDDDDDDDDDDDD20000000000000000000000000000000000000000000
7DDDDDDDDDDDDDDDDDDD20000000000000000000000000000000000000000000
5DDDDDDDDDDDDD40000000000000000000000000000000000000000000000000
3DDDDDDDDDDDDD40000000000000000000000000000000000000000000000000
0DDDDDDDDDDDDD40000000000000000000000000000000000000000000000000
0BDDDDDDDDDDDD40000000000000000000000000000000000000000000000000
06ADDDDDDDDDDD40000000000000000000000000000000000000000000000000
0000245789ABBB40000000000000000000000000000000000000000000000000
0000000000000000000000000000000000000000000000000000000000000000
0000000000000000000000000000000000000000000000000000000000000000
}

!define OCI_KEY(_color)                                 SPRITE_PUT(          OCI_KEY          oci_key, _color)
!define OCI_KEY(_color, _scale)                         SPRITE_PUT(          OCI_KEY          oci_key, _color, _scale)
!define OCI_KEY(_color, _scale, _alias)                 SPRITE_ENT(  _alias, OCI_KEY,         oci_key, _color, _scale)
!define OCI_KEY(_color, _scale, _alias, _shape)         SPRITE_ENT(  _alias, OCI_KEY,         oci_key, _color, _scale, _shape)
!define OCI_KEY(_color, _scale, _alias, _shape, _label) SPRITE_ENT_L(_alias, OCI_KEY, _label, oci_key, _color, _scale, _shape)
skinparam folderBackgroundColor<<OCI_KEY>> White
