sprite $oci_policyenforcement [64x64/16] {
000000006DDDDDDDDDDDDDDDDDDDDDDDDDDDDDDDDDDDDDDDDDDDDDD500000000
000000006DDDDDDDDDDDDDDDDDDDDDDDDDDDDDDDDDDDDDDDDDDDDDD500000000
000000006DDDDDDDDDDDDDDDDDDDDDDDDDDDDDDDDDDDDDDDDDDDDDD500000000
000000006DDDDDDDDDDDDDDDDDDDDDDDDDDDDDDDDDDDDDDDDDDDDDD500000000
000000006DDDDDDDDDDDDDDDDDDDDDDDDDDDDDDDDDDDDDDDDDDDDDD500000000
000000006DDDDDDDDDDDDDDDDDDDDDDDDDDDDDDDDDDDDDDDDDDDDDD500000000
000000006DDDDDDDDDDDDDDDDDDDDDDDDDDDDDDDDDDDDDDDDDDDDDD500000000
000000006DDDDDDDDDDDDDDDDDDDDDDDDDDDDDDDDDDDDDDDDDDDDDD500000000
000000006DDDDDDDDDDDDDDDDDDDDDDDDDDDDDDDDDDDDDDDDDDDDDD500000000
000000006DDDDDDDDDDDDDDDDDDDD952259CDDDDDDDDDDDDDDDDDDD500000000
000000006DDDDDDDDDDDDDDDDC840000000037BDDDDDDDDDDDDDDDD500000000
000000006DDDDDDDDDDDDDB730000000000000026ADDDDDDDDDDDDD500000000
000000006DDDDDDDDDDDB2000000000000000000002ADDDDDDDDDDD500000000
000000006DDDDDDDDDDD100000000037730000000001CDDDDDDDDDD500000000
000000006DDDDDDDDDDC000000148CDDDDC951000000ADDDDDDDDDD500000000
000000006DDDDDDDDDDC00006ADDDDDDDDDDDDA60000ADDDDDDDDDD500000000
000000006DDDDDDDDDDC0001DDDDDDDDDDDDDDDD1000ADDDDDDDDDD500000000
000000006DDDDDDDDDDC0001DDDDDDDDDDDDDDDD1000ADDDDDDDDDD500000000
000000006DDDDDDDDDDC0001DDDDDDDDDDDBDDDD1000ADDDDDDDDDD500000000
000000006DDDDDDDDDDC0001DDDDDDDDDD807DDD1000ADDDDDDDDDD500000000
000000006DDDDDDDDDDC0001DDDDDDDDD8003DDD1000ADDDDDDDDDD500000000
000000006DDDDDDDDDDC0001DDDDCDDD8003CDDD1000ADDDDDDDDDD500000000
000000006DDDDDDDDDDC0001DDD809D8003CDDDD1000ADDDDDDDDDD500000000
000000006DDDDDDDDDDC0001DDD2005003CDDDDD1000ADDDDDDDDDD500000000
000000006DDDDDDDDDDC0001DDDC20003CDDDDDD1000ADDDDDDDDDD500000000
000000006DDDDDDDDDDD0000DDDDC203CDDDDDDD0000ADDDDDDDDDD500000000
000000006DDDDDDDDDDD1000ADDDDC5CDDDDDDDA0000CDDDDDDDDDD500000000
000000006DDDDDDDDDDD50002DDDDDDDDDDDDDD20002DDDDDDDDDDD500000000
000000006DDDDDDDDDDDA00004DDDDDDDDDDDD500007DDDDDDDDDDD500000000
000000006DDDDDDDDDDDD400005DDDDDDDDDD500002CDDDDDDDDDDD500000000
000000006DDDDDDDDDDDDC100003CDDDDDDC300000ADDDDDDDDDDDD500000000
000000006DDDDDDDDDDDDDB1000008DDDD81000009DDDDDDDDDDDDD500000000
000000006DDDDDDDDDDDDDDB2000003AA30000009DDDDDDDDDDDDDD500000000
000000006DDDDDDDDDDDDDDDC30000000000002BDDDDDDDDDDDDDDD500000000
000000006DDDDDDDDDDDDDDDDD810000000005CDDDDDDDDDDDDDDDD500000000
000000006DDDDDDDDDDDDDDDDDDC40000002ADDDDDDDDDDDDDDDDDD500000000
000000006DDDDDDDDDDDDDDDDDDDD930028DDDDDDDDDDDDDDDDDDDD500000000
000000006DDDDDDDDDDDDDDDDDDDDDDABDDDDDDDDDDDDDDDDDBAAAC500000000
000000006DDDDDDDDDDDDDDDDDDDDDDDDDDDDDDDDDDDDDC84000000000000000
000000006DDDDDDDDDDDDDDDDDDDDDDDDDDDDDDDDDDDC6000000000000000000
000000006DDDDDDDDDDDDDDDDDDDDDDDDDDDDDDDDDDA10000000000000000000
000000006DDDDDDDDDDDDDDDDDDDDDDDDDDDDDDDDD8000000000100000000000
000000006DDDDDDDDDDDDDDDDDDDDDDDDDDDDDDDD700000048CDDDC840000000
000000006DDDDDDDDCBBBBBBBBBBBBBBBBBBBBBB9000003BDDDDDDDDDA300000
000000006DDDDDDDD40000000000000000000000000006DDDDDDDDDDDDD60000
000000006DDDDDDDD4000000000000000000000000007DDDDDD7ADDDDDDD6000
000000006DDDDDDDD400000000000000000000000004DDDDDDB00ADDDDDDD300
000000006DDDDDDDD51111111111111111111100000CDDDDDD8000ADDDDDDB00
000000006DDDDDDDDDDDDDDDDDDDDDDDDDDDDD20006DDDDDD700000ADDDDDD50
000000006DDDDDDDDDDDDDDDDDDDDDDDDDDDDC0000ADDDDD70000000ADDDDD90
000000006DDDDDDDDDDDDDDDDDDDDDDDDDDDDA0001DDDD6200000011ADDDDDD0
000000006DDDDDDDDDDDDDDDDDDDDDDDDDDDD90002DDDD30000001CCDDDDDDD1
000000006DDDDDDDDDDDDDDDDDDDDDDDDDDDD80004DDDDC30000006DDDDDDDD3
000000006DDDDDDDD6222222222222222222210003DDDDDC3002A106DDDDDDD2
000000006DDDDDDDD4000000000000000000000001DDDDDDC305DA106DDDDDD0
000000006DDDDDDDD4000000000000000000000000BDDDDDDC4ADDA106DDDDA0
000000006DDDDDDDD40000000000000000000000007DDDDDDDDDDDDA109DDD60
000000006DDDDDDDDA9999999999999999999940001CDDDDDDDDDDDDA7DDDC10
000000006DDDDDDDDDDDDDDDDDDDDDDDDDDDDDA00007DDDDDDDDDDDDDDDDD500
000000006DDDDDDDDDDDDDDDDDDDDDDDDDDDDDD300009DDDDDDDDDDDDDDD9000
000000006DDDDDDDDDDDDDDDDDDDDDDDDDDDDDDB00001ADDDDDDDDDDDDD90000
000000006DDDDDDDDDDDDDDDDDDDDDDDDDDDDDDD7000007DDDDDDDDDDC600000
000000006DDDDDDDDDDDDDDDDDDDDDDDDDDDDDDDD50000028CDDDDDB71000000
000000006DDDDDDDDDDDDDDDDDDDDDDDDDDDDDDDDD5000000024432000000000
}

!define OCI_POLICYENFORCEMENT(_color)                                 SPRITE_PUT(          OCI_POLICYENFORCEMENT          oci_policyenforcement, _color)
!define OCI_POLICYENFORCEMENT(_color, _scale)                         SPRITE_PUT(          OCI_POLICYENFORCEMENT          oci_policyenforcement, _color, _scale)
!define OCI_POLICYENFORCEMENT(_color, _scale, _alias)                 SPRITE_ENT(  _alias, OCI_POLICYENFORCEMENT,         oci_policyenforcement, _color, _scale)
!define OCI_POLICYENFORCEMENT(_color, _scale, _alias, _shape)         SPRITE_ENT(  _alias, OCI_POLICYENFORCEMENT,         oci_policyenforcement, _color, _scale, _shape)
!define OCI_POLICYENFORCEMENT(_color, _scale, _alias, _shape, _label) SPRITE_ENT_L(_alias, OCI_POLICYENFORCEMENT, _label, oci_policyenforcement, _color, _scale, _shape)
skinparam folderBackgroundColor<<OCI_POLICYENFORCEMENT>> White
