sprite $oci_distribution [64x64/16] {
0000000000000000000000000000000000000000000000000000054000000000
00000000000000000000000000000000000000000000000000005DD400000000
0000000000000000000000000000000000000000000000000005DDDD40000000
000000000000000000000000000000000000000000000000005DDDDDD4000000
00000000000000000000000000000000000000000000000005DDDDDDDD400000
0000000000000000000000000000000000000000000000005DDDDDDDDDD40000
0000000000000000000000008A4000000000000000000005DDDDDDDDDDDD4000
000000000000000000000002DDDA4000000000000000005DDDDDDDDDDDDDD400
000000000000000000000008DDDDDA3000000000000005DDDDDDDDDDDDDDDD40
00000000000000000000002DDDDDDDDA3000000000005DDDDDDDDDDDDDDDDDD4
00000000000000000000008DDDDDDDDDDA3000000000ADDDDDDDDDDDDDDDDDD9
0000000000000000000002DDDDDDDDDDDDDA300000000ADDDDDDDDDDDDDDDDA0
6666666666666610000008DDDDDDDDDDDDDDD200000000ADDDDDDDDDDDDDDA00
DDDDDDDDDDDDDD3000002DDDDDDDDDDDDDDDA0000000000ADDDDDDDDDDDDA000
DDDDDDDDDDDDDD3000008DDDDDDDDDDDDDDD300000000000ADDDDDDDDDDA0000
DDDDDDDDDDDDDD300002DDDDDDDDDDDDDDDA0000000000000ADDDDDDDDA00000
DDDDDDDDDDDDDD300009DDDDDDDDDDDDDDD300000000000000ADDDDDDA000000
DDDDDDDDDDDDDD30002DDDDDDDDDDDDDDDA0000000000000000ADDDDA0000000
DDDDDDDDDDDDDD30006DDDDDDDDDDDDDDD300000000000000000ADDA00000000
DDDDDDDDDDDDDD3000028DDDDDDDDDDDD90000000000000000000AA000000000
DDDDDDDDDDDDDD300000028DDDDDDDDDD3000000000000000000000000000000
DDDDDDDDDDDDDD30000000028DDDDDDD90000000000000000000000000000000
DDDDDDDDDDDDDD3000000000028DDDDD30000000000000000000000000000000
DDDDDDDDDDDDDD300000000000028DD900000000000000000000000000000000
DDDDDDDDDDDDDD30000000000000039300000000000000000000000000000000
DDDDDDDDDDDDDD30000000000000000000000000000001000000000000000000
AAAAAAAAAAAAAA2000000000000000000000000000004D810000000000000000
00000000000000000000000000000000000000000000ADDD8100000000000000
00000000000000000000000000000000000000000004DDDDDD81000000000000
0000000000000000000000000000000000000000000BDDDDDDDD810000000000
0000000000000000000000000000000000000000004DDDDDDDDDDD8100000000
BBBBBBBBBBBBBB30004BBBBBBBBBBBBBA000000000BDDDDDDDDDDDDD81000000
DDDDDDDDDDDDDD30005DDDDDDDDDDDDDB000000004DDDDDDDDDDDDDDD8000000
DDDDDDDDDDDDDD30005DDDDDDDDDDDDDB00000000BDDDDDDDDDDDDDDD2000000
DDDDDDDDDDDDDD30005DDDDDDDDDDDDDB00000005DDDDDDDDDDDDDDD80000000
DDDDDDDDDDDDDD30005DDDDDDDDDDDDDB0000000BDDDDDDDDDDDDDDD10000000
DDDDDDDDDDDDDD30005DDDDDDDDDDDDDB0000005DDDDDDDDDDDDDDD800000000
DDDDDDDDDDDDDD30005DDDDDDDDDDDDDB000000BDDDDDDDDDDDDDDD100000000
DDDDDDDDDDDDDD30005DDDDDDDDDDDDDB000001BDDDDDDDDDDDDDD8000000000
DDDDDDDDDDDDDD30005DDDDDDDDDDDDDB00000004ADDDDDDDDDDDD1000000000
DDDDDDDDDDDDDD30005DDDDDDDDDDDDDB0000000004BDDDDDDDDD70000000000
DDDDDDDDDDDDDD30005DDDDDDDDDDDDDB000000000004BDDDDDDC10000000000
DDDDDDDDDDDDDD30005DDDDDDDDDDDDDB00000000000004BDDDD700000000000
DDDDDDDDDDDDDD30005DDDDDDDDDDDDDB0000000000000004BDC100000000000
DDDDDDDDDDDDDD30005DDDDDDDDDDDDDB0000000000000000056000000000000
5555555555555510002555555555555540000000000000000000000000000000
0000000000000000000000000000000000000000000000000000000000000000
0000000000000000000000000000000000000000000000000000000000000000
0000000000000000000000000000000000000000000000000000000000000000
3333333333333310001333333333333330000233333333333332000000000000
DDDDDDDDDDDDDD30005DDDDDDDDDDDDDB00009DDDDDDDDDDDDD7000000000000
DDDDDDDDDDDDDD30005DDDDDDDDDDDDDB00009DDDDDDDDDDDDD7000000000000
DDDDDDDDDDDDDD30005DDDDDDDDDDDDDB00009DDDDDDDDDDDDD7000000000000
DDDDDDDDDDDDDD30005DDDDDDDDDDDDDB00009DDDDDDDDDDDDD7000000000000
DDDDDDDDDDDDDD30005DDDDDDDDDDDDDB00009DDDDDDDDDDDDD7000000000000
DDDDDDDDDDDDDD30005DDDDDDDDDDDDDB00009DDDDDDDDDDDDD7000000000000
DDDDDDDDDDDDDD30005DDDDDDDDDDDDDB00009DDDDDDDDDDDDD7000000000000
DDDDDDDDDDDDDD30005DDDDDDDDDDDDDB00009DDDDDDDDDDDDD7000000000000
DDDDDDDDDDDDDD30005DDDDDDDDDDDDDB00009DDDDDDDDDDDDD7000000000000
DDDDDDDDDDDDDD30005DDDDDDDDDDDDDB00009DDDDDDDDDDDDD7000000000000
DDDDDDDDDDDDDD30005DDDDDDDDDDDDDB00009DDDDDDDDDDDDD7000000000000
DDDDDDDDDDDDDD30005DDDDDDDDDDDDDB00009DDDDDDDDDDDDD7000000000000
DDDDDDDDDDDDDD30005DDDDDDDDDDDDDB00009DDDDDDDDDDDDD7000000000000
DDDDDDDDDDDDDD30005DDDDDDDDDDDDDB00009DDDDDDDDDDDDD7000000000000
}

!define OCI_DISTRIBUTION(_color)                                 SPRITE_PUT(          OCI_DISTRIBUTION          oci_distribution, _color)
!define OCI_DISTRIBUTION(_color, _scale)                         SPRITE_PUT(          OCI_DISTRIBUTION          oci_distribution, _color, _scale)
!define OCI_DISTRIBUTION(_color, _scale, _alias)                 SPRITE_ENT(  _alias, OCI_DISTRIBUTION,         oci_distribution, _color, _scale)
!define OCI_DISTRIBUTION(_color, _scale, _alias, _shape)         SPRITE_ENT(  _alias, OCI_DISTRIBUTION,         oci_distribution, _color, _scale, _shape)
!define OCI_DISTRIBUTION(_color, _scale, _alias, _shape, _label) SPRITE_ENT_L(_alias, OCI_DISTRIBUTION, _label, oci_distribution, _color, _scale, _shape)
skinparam folderBackgroundColor<<OCI_DISTRIBUTION>> White
