sprite $oci_sourceartifact [64x64/16] {
6666666666666664000000000000000000000000000000000000000000000000
DDDDDDDDDDDDDDDA000000000000000000000000000000000000000000000000
DDDDDDDDDDDDDDDA000000000000000000000000000000000000000000000000
DDDDDDDDDDDDDDDA000000000000000000000000000000000000000000000000
DDDA33333333CDDA000000000000000000000000000000000000000000000000
DDD900000000CDDA00000000000005862007A930491078199971018A81499991
DDD900000000CDDA0000000000005D9B80AD8AD35D20AB2DA9D81CC9C76D8881
DDD900000000CDDA0000000000006D8402D600C85D20AB2D50BA5D20106D7650
DDD900000000CDDA00000000000007CDA3D500C95D20AB2DDDC36D00006DA980
DDD900000000CDDA000000000000484AD0BC69D42D96D82D7AC13D95A56D5551
DDD900000000CDDA0000000000004BDC6029CB6006CD912C42C805CDB36CCCC2
DDD900000000CDDA000000000000000000000000000000000000000000000000
DDDA44444444CDDA000000000000000000000000000000000000000000000000
DDDDDDDDDDDDDDDA000000000000000000000000000000000000000000000000
DDDDDDDDDDDDDDDA000000000000000000000000000000000000000000000000
DDDDDDDDDDDDDDDA000000000000000000000000000000000000000000000000
4444444444444443000000000000000000000000000000000000000000000000
0000000000000000000000000000000005CCCCCCCCCCCCCCCCCCCCCCCCCCCCC6
0000000000000000000000000000000006DDDDDDDDDDDDDDDDDDDDDDDDDDDDD7
0000000000000000000000000000000006DDDDDDDDDDDDDDDDDDDDDDDDDDDDD7
0000000000000000000000000000000006DDDDDDDDDDDDDDDDDDDDDDDDDDDDD7
0000000000000000000000000000000006DDDDDDDDDDDDDDDDDDDDDDDDDDDDD7
0000000000000000000000000000000006DDDDDDDDDDDDDDDDDDDDDDDDDDDDD7
0000000000000000000000000000000006DDDDDDDDDDDDDDDDDDDDDDDDDDDDD7
DDDDDDDDDDDDDDDA000000000000000006DDDDDDDDDDDDDDDDDDDDDDDDDDDDD7
DDDDDDDDDDDDDDDA000000000000000006DDDDDDDDDDDDDDDDDDDDDDDDDDDDD7
DDDDDDDDDDDDDDDA000000000000000006DDDDDDDDDDDDDDDDDDDDDDDDDDDDD7
DDDC99999999DDDA000000000100000006DDDDDDDDDDDDDDDDDDDDDDDDDDDDD7
DDD900000000CDDA000000000A50000006DDDDDDDDDDDDDDDDDDDDDDDDDDDDD7
DDD900000000CDDA000111111BD8100006DDDDDDDDDDDDDDDDDDDDDDDDDDDDD7
DDD900000000CDDA000CDDDDDDDDB30006DDDDDDDDDDDDDDDDDDDDDDDDDDDDD7
DDD900000000CDDA000CDDDDDDDDDD7006DDDDDDDDDDDDDDDDDDDDDDDDDDDDD7
DDD900000000CDDA000CDDDDDDDDDD6006DDDDDDDDDDDDDDDDDDDDDDDDDDDDD7
DDD900000000CDDA000ABBBBBCDDB20006DDDDDDDDDDDDDDDDDDDDDDDDDDDDD7
DDD900000000CDDA000000000AD9000006DDDDDDDDDDDDDDDDDDDDDDDDDDDDD7
DDD900000000CDDA000000000950000006DDDDDDDDDDDDDDDDDDDDDDDDDDDDD7
DDDDCCCCCCCCDDDA000000000100000006DDDDDDDDDDDDDDDDDDDDDDDDDDDDD7
DDDDDDDDDDDDDDDA000000000000000006DDDDDDDDDDDDDDDDDDDDDDDDDDDDD7
DDDDDDDDDDDDDDDA000000000000000006DDDDDDDDDDDDDDDDDDDDDDDDDDDDD7
9999999999999997000000000000000006DDDDDDDDDDDDDDDDDDDDDDDDDDDDD7
0000000000000000000000000000000006DDDDDDDDDDDDDDDDDDDDDDDDDDDDD7
0000000000000000000000000000000006DDDDDDDDDDDDDDDDDDDDDDDDDDDDD7
0000000000000000000000000000000006DDDDDDDDDDDDDDDDDDDDDDDDDDDDD7
0000000000000000000000000000000006DDDDDDDDDDDDDDDDDDDDDDDDDDDDD7
0000000000000000000000000000000006DDDDDDDDDDDDDDDDDDDDDDDDDDDDD7
0000000000000000000000000000000006DDDDDDDDDDDDDDDDDDDDDDDDDDDDD7
0000000000000000000000000000000006DDDDDDDDDDDDDDDDDDDDDDDDDDDDD7
5555555555555553000000000000000000000000000000000000000000000000
DDDDDDDDDDDDDDDA000000000000000000000000000000000000000000000000
DDDDDDDDDDDDDDDA000000000000000000000000000000000000000000000000
DDDDDDDDDDDDDDDA000000000000000000000000000000000000000000000000
DDDA44444444CDDA000000000000000000000000000000000000000000000000
DDD900000000CDDA000000000000000001111001011110001100000100011110
DDD900000000CDDA0000008D400BDDD65DDDD88C1DDDD701DC0005CDC59DDDD3
DDD900000000CDDA000001DCA00BA39D24AC428C1D944206CD402D949434D941
DDD900000000CDDA000006D6D20BB5AC009C008C1DB9910B7AA05D100000D700
DDD900000000CDDA00000CC9D80BCCD3009C008C1DA7714DABD24D302000D700
DDD900000000CDDA00004D98BC1B93D7009C008C1D7000AB88C80BCAC800D700
DDD900000000CDDA000068002836505710570057074000840057017960007400
DDDA33333333CDDA000000000000000000000000000000000000000000000000
DDDDDDDDDDDDDDDA000000000000000000000000000000000000000000000000
DDDDDDDDDDDDDDDA000000000000000000000000000000000000000000000000
DDDDDDDDDDDDDDDA000000000000000000000000000000000000000000000000
5555555555555554000000000000000000000000000000000000000000000000
}

!define OCI_SOURCEARTIFACT(_color)                                 SPRITE_PUT(          OCI_SOURCEARTIFACT          oci_sourceartifact, _color)
!define OCI_SOURCEARTIFACT(_color, _scale)                         SPRITE_PUT(          OCI_SOURCEARTIFACT          oci_sourceartifact, _color, _scale)
!define OCI_SOURCEARTIFACT(_color, _scale, _alias)                 SPRITE_ENT(  _alias, OCI_SOURCEARTIFACT,         oci_sourceartifact, _color, _scale)
!define OCI_SOURCEARTIFACT(_color, _scale, _alias, _shape)         SPRITE_ENT(  _alias, OCI_SOURCEARTIFACT,         oci_sourceartifact, _color, _scale, _shape)
!define OCI_SOURCEARTIFACT(_color, _scale, _alias, _shape, _label) SPRITE_ENT_L(_alias, OCI_SOURCEARTIFACT, _label, oci_sourceartifact, _color, _scale, _shape)
skinparam folderBackgroundColor<<OCI_SOURCEARTIFACT>> White
