sprite $oci_securityscanning [64x64/16] {
0000000000000000000000000013577887764200000000000000000000000000
0000000000000000000000259CDDDDDDDDDDDDCA620000000000000000000000
000000000000000000015ADDDDDDDDDDDDDDDDDDDDB610000000000000000000
0000000000000000016CDDDDDDDDDDDDDDDDDDDDDDDDD8200000000000000000
00000000000000007CDDDDDDDDDB9776DDDDDDDDDDDDDDD81000000000000000
000000000000004BDDDDDDDA73000000DDDDDDDDDDDDDDDDC500000000000000
00000000000007DDDDDDC72000000000DDDDDDDDDDDDDDDDDD90000000000000
000000000001ADDDDDC6100000000000DDDDDDDDDDDDDDDDDDDB200000000000
00000000002BDDDDD910000000000000DDDDDDDDDDDDDDDDDDDDC30000000000
0000000003CDDDDC3000000000000000DDDDDDDDDDDDDDDDDDDDDC2000000000
000000002CDDDDA10000000000369BCCDDDDDDDDDDDDDDDDDDDDD60000000000
00000001BDDDD800000000038CDDDDDDDDDDDDDDDDDDDDDDDDDD600000000000
0000000ADDDD8000000004ADDDDDDDDDDDDDDDDDDDDDDDDDDDD6000000000000
0000007DDDD8000000019DDDDDDDDDDDDDDDDDDDDDDDDDDDDD60000000000000
000004DDDDA00000004CDDDDDDC85311DDDDDDDDDDDDDDDDD600000000000000
00000BDDDC10000006DDDDDD94000000DDDDDDDDDDDDDDDD6000000000000000
00007DDDD30000007DDDDDA300000000DDDDDDDDDDDDDDD60000000000000000
0001CDDD80000006DDDDD60000000000DDDDDDDDDDDDDD600000000000000000
0007DDDC1000004DDDDC300000000000DDDDDDDDDDDDD6000000000000000000
000CDDD6000001CDDDC3000000000134DDDDDDDDDDDD60000000000000000000
005DDDC1000009DDDD3000000016ADDDDDDDDDDDDDD600000000000000000000
00ADDD7000004DDDD600000006CDDDDDDDDDDDDDDD6000000000000000000000
01DDDD200000ADDDA0000001ADDDDDDDDDDDDDDDD60000000000000000000000
05DDDA000003DDDD3000001BDDDDDDB9DDDDDDDD600000000000000000000000
08DDD7000008DDD9000000ADDDDC6100DDDDDDD7000000000000000000000000
0CDDD300000CDDD4000007DDDDA10000DDDDDD70000000000000000000000000
1DDDD000003DDDC000001CDDD9000000DDDDD700000000000000000000000000
3DDDB000006DDD8000007DDDC1000000DDDD7000000000000000000000000000
5DDD9000009DDD500000BDDD50000000DDD70000000000000000000000000000
6DDD700000BDDD300002DDDD00000039DD700000000000000000000000000000
6DDD700000CDDD100003DDDA000004DDDD400000000000000000000000000000
7DDD600000CDDD100005DDD8000009DDDD900000000000000000000000000000
7DDD600000CDDD100005DDD800000ADDDDA000008CCC500001DDDC000006DDD7
6DDD700000CDDD100004DDDA000005DDDD500000ADDD400002DDDC000007DDD7
6DDD700000BDDD300002DDDC0000005AA5000000CDDD200003DDDB000008DDD6
5DDD9000009DDD500000CDDD4000000000000005DDDB000006DDD9000009DDD4
3DDDB000006DDD8000008DDDB00000000000000BDDD7000009DDD700000BDDD3
1DDDD000003DDDC000002DDDD80000000000008DDDD200000CDDD300000DDDD1
0CDDD300000CDDD4000008DDDD800000000008DDDD8000004DDDC000003DDDB0
08DDD7000008DDD9000001BDDDDB40000004BDDDDB100000ADDD9000007DDD80
05DDDB000003DDDD3000002CDDDDDC9779CDDDDDC2000003DDC82000005ADD50
01DDDD200000ADDDA0000002BDDDDDDDDDDDDDDB200000087300000000001410
00ADDD7000004DDDD600000018DDDDDDDDDDDD81000000000000000000000000
005DDDC1000009DDDD3000000028CDDDDDDC8200000000000000000100000000
000CDDD6000001CDDDC30000000003466430000000000000000159DDB7300000
0007DDDC1000004DDDDC300000000000000000000000000026ADDDDDDDDC8400
0001CDDD80000006DDDDD60000000000000000000060000CDDDDDDDDDDDDDDC2
00006DDDD30000007DDDDDA300000000000000003BD0000DDDDDDDDDDDDDDDD3
00000BDDDC10000006DDDDDD940000000000004ADDD0000DDDDDDDDDDDDDDDD3
000003DDDDA00000004CDDDDDDC8531112359CDDDDD0000DDDDDDDDDDD5ADDD3
0000007DDDD9000000019DDDDDDDDDDDDDDDDDDDDDD0000DDDDDDDDDD401CDD3
0000000ADDDD8000000003ADDDDDDDDDDDDDDDDDDA30000DDDDDDDDD4007DDD3
00000001BDDDD900000000038CDDDDDDDDDDDDC83000000DDDD6BDD4007DDDD3
000000002CDDDDA10000000000369BCCCBA963000000000DDD501B4007DDDDD3
0000000003CDDDDC3000000000000000000000000000000DDD9000007DDDDDD3
00000000002BDDDDD910000000000000000000000000000CDDD90007DDDDDDD3
000000000001ADDDDDC6100000000000000000000000000ADDDDA07DDDDDDDD0
00000000000007DDDDDDC720000000000000000002730004DDDDDCDDDDDDDD80
000000000000003BDDDDDDDB7300000000000037BDD800009DDDDDDDDDDDDB10
00000000000000006CDDDDDDDDDB98766789BDDDDDDC200009DDDDDDDDDDC200
0000000000000000017CDDDDDDDDDDDDDDDDDDDDDDDD9000008DDDDDDDDB1000
000000000000000000005ADDDDDDDDDDDDDDDDDDDDA400000005CDDDDD700000
0000000000000000000000158CDDDDDDDDDDDDB851000000000019DDB3000000
0000000000000000000000000013566776653000000000000000003500000000
}

!define OCI_SECURITYSCANNING(_color)                                 SPRITE_PUT(          OCI_SECURITYSCANNING          oci_securityscanning, _color)
!define OCI_SECURITYSCANNING(_color, _scale)                         SPRITE_PUT(          OCI_SECURITYSCANNING          oci_securityscanning, _color, _scale)
!define OCI_SECURITYSCANNING(_color, _scale, _alias)                 SPRITE_ENT(  _alias, OCI_SECURITYSCANNING,         oci_securityscanning, _color, _scale)
!define OCI_SECURITYSCANNING(_color, _scale, _alias, _shape)         SPRITE_ENT(  _alias, OCI_SECURITYSCANNING,         oci_securityscanning, _color, _scale, _shape)
!define OCI_SECURITYSCANNING(_color, _scale, _alias, _shape, _label) SPRITE_ENT_L(_alias, OCI_SECURITYSCANNING, _label, oci_securityscanning, _color, _scale, _shape)
skinparam folderBackgroundColor<<OCI_SECURITYSCANNING>> White
