sprite $oci_disk [64x64/16] {
0000000068888888888888888888888888888888888888888888888888500000
000000009DDDDDDDDDDDDDDDDDDDDDDDDDDDDDDDDDDDDDDDDDDDDDDDDD800000
000000009DDDDDDDDDDDDDDDDDDDDDDDDDDDDDDDDDDDDDDDDDDDDDDDDD800000
000000009DDDDDDDDDDDDDDDDDDDDDDDDDDDDDDDDDDDDDDDDDDDDDDDDD800000
000000009DDDDDDDDDDDDDDDDDDDDCA87778ACDDDDDDDDDDDDDDDDDDDD800000
000000009DDDDDDDDDDDDDDDDD951000000000259DDDDDDDDDDDDDDDDD800000
000000009DDDDDDDDDDDDDDC7100000000000000017CDDDDDDDDDDDDDD800000
000000009DDDDDDDDDDDDD81000000000000000000018DDDDDDDDDDDDD800000
000000009DDDDDDDDDDDC3000000000000000000000003CDDDDDDDDDDD800000
000000009DDDDDDDDDDA100000000000000000000000001ADDDDDDDDDD800000
000000009DDDDDDDDD900000000000000000000000000000ADDDDDDDDD800000
000000009DDDDDDDDA0000000000000000000000000000000ADDDDDDDD800000
000000009DDDDDDDB100000000000000000000000000000001CDDDDDDD800000
000000009DDDDDDD30000000000000000000000000000000003DDDDDDD800000
000000009DDDDDD7000000000000000000000000000000000008DDDDDD800000
000000009DDDDDC0000000000000000000000000000000000001CDDDDD800000
000000009DDDDD600000000000000000000000000000000000006DDDDD800000
000000009DDDDC000000000000000000000000000000000000001CDDDD800000
000000009DDDD80000000000000000000000000000000000000008DDDD800000
000000009DDDD30000000000000000000000000000000000000004DDDD800000
000000009DDDD00000000000000000001210000000000000000001DDDD800000
000000009DDDA000000000000000003ADDD9200000000000000000BDDD800000
000000009DDD800000000000000003CDDDDDC200000000000000008DDD800000
000000009DDD60000000000000000BDDDDDDDA00000000000000007DDD800000
000000009DDD50000000000000003DDDDDDDDD10000000000000006DDD800000
000000009DDD50000000000000005DDDDDDDDD30000000000000005DDD800000
000000009DDD50000000000000004DDDDDDDDD20000000000000006DDD800000
000000009DDD60000000000000001CDDDDDDDC00000000000000006DDD800000
000000009DDD700000000000000006DDDDDDD400000000000000008DDD800000
000000009DDD9000000000000000006DDDDC500000000000000000ADDD800000
000000009DDDC00000000000000000015651000000000000000000CDDD800000
000000009DDDD20000000000000000000000000000000000000003DDDD800000
000000009DDDD70000000000000000000000000000000000000007DDDD800000
000000009DDDDB000000000000000000000000000000000000000CDDDD800000
000000009DDDDD400000000000000000000076000000000000005DDDDD800000
000000009DDDDDA0000000000000000000008DB4000000000000BDDDDD800000
000000009DDDDDD5000000000000000000008DDD920000000006DDDDDD800000
000000009DDDDDDC100000000000000000008DDDDD710000001CDDDDDD800000
000000009DDDDDDDA00000000000000000008DDDDDDC600000ADDDDDDD800000
000000009DDDDDDDD70000000000000000008DDDDDDDDB3008DDDDDDDD800000
000000009DDDDDDDDD6000000000000000008DDDDDDDDDD98DDDDDDDDD800000
000000009DDDDDDDDDD700000000000000008DDD67DDDDDDDDDDDDDDDD800000
000000009DDDDDDDDDDD91000000000000008DDD5029DDDDDDDDDDDDDD800000
000000009DDDDDDDDDDDDC400000000000008DDD50004BDDDDDDDDDDDD800000
000000009DDDDDDDDDDDDDDA3000000000008DDD5000006CDDDDDDDDDD800000
000000009DDDDDDDDDDDDDDDDB61000000008DDD500000018DDDDDDDDD800000
000000009DDDDDDDDDDDDDDDDDDDB8644345ADDD5000000003CDDDDDDD800000
000000009DDDDDDDDDDDDDDDDDDDDDDDDDDDDDDD50000000001CDDDDDD800000
000000009DDDDDDDDDDDDDDDDDDDDDDDDDDDDDDD500000000004DDDDDD800000
000000009DDDDDDDDDDDDDDDDDDDDDDDDDDDDDDD500000000000BDDDDD800000
000000009DDDDDDDDDDDDDDDDDDDDDDDDDDDDDDD5000000000008DDDDD800000
000000009DDDDDDDDDDDDDDDDDDDDDDDDDDDDDDD5000000000007DDDDD800000
000000009DDDDDA7CD79B777BDDDDDDDDDDDDDDD6000000000008DDDDD800000
000000009DDDDD70BD14801008DDDDDDDDDDDDDDA00000000000BDDDDD800000
000000009DDDDD707814809C21DDDDDDDDDDDDDDD30000000004DDDDDD800000
000000009DDDDD700004809D40DDDDDDDDDDDDDDDB100000001CDDDDDD800000
000000009DDDDD70BD14807803DDDDDDDDDDDDDDDDC4000004CDDDDDDD800000
000000009DDDDD70BD1480003BDDDDDDDDDDDDDDDDDDB878BDDDDDDDDD800000
000000009DDDDDCADDBBCAACDDDDDDDDDDDDDDDDDDDDDDDDDDDDDDDDDD800000
000000009DDDDDDDDDDDDDDDDDDDDDDDDDDDDDDDDDDDDDDDDDDDDDDDDD800000
000000009DDDDDDDDDDDDDDDDDDDDDDDDDDDDDDDDDDDDDDDDDDDDDDDDD800000
000000009DDDDDDDDDDDDDDDDDDDDDDDDDDDDDDDDDDDDDDDDDDDDDDDDD800000
000000009DDDDDDDDDDDDDDDDDDDDDDDDDDDDDDDDDDDDDDDDDDDDDDDDD800000
0000000068888888888888888888888888888888888888888888888888500000
}

!define OCI_DISK(_color)                                 SPRITE_PUT(          OCI_DISK          oci_disk, _color)
!define OCI_DISK(_color, _scale)                         SPRITE_PUT(          OCI_DISK          oci_disk, _color, _scale)
!define OCI_DISK(_color, _scale, _alias)                 SPRITE_ENT(  _alias, OCI_DISK,         oci_disk, _color, _scale)
!define OCI_DISK(_color, _scale, _alias, _shape)         SPRITE_ENT(  _alias, OCI_DISK,         oci_disk, _color, _scale, _shape)
!define OCI_DISK(_color, _scale, _alias, _shape, _label) SPRITE_ENT_L(_alias, OCI_DISK, _label, oci_disk, _color, _scale, _shape)
skinparam folderBackgroundColor<<OCI_DISK>> White
