sprite $oci_developer [64x64/16] {
0000000000000000000000000000268AA8620000000000000000000000000000
000000000000000000000000003ADDDDDDDDA300000000000000000000000000
00000000000000000000000008DDDDDDDDDDDD80000000000000000000000000
000000000000000000000000ADDDDDDDDDDDDDDA000000000000000000000000
000000000000000000000008DDDDDDDDDDDDDDDD900000000000000000000000
00000000000000000000005DDDDDDDDDDDDDDDDDD50000000000000000000000
0000000000000000000000BDDDDDDDDDDDDDDDDDDB0000000000000000000000
0000000000000000000004DDDDDDDDDDDDDDDDDDDD4000000000000000000000
0000000000000000000008DDDDDDDDDDDDDDDDDDDD8000000000000000000000
000000000000000000000BDDDDDDDDDDDDDDDDDDDDB000000000000000000000
000000000000000000000CDDDDDDDDDDDDDDDDDDDDC000000000000000000000
000000000000000000000DDDDDDDDDDDDDDDDDDDDDD000000000000000000000
000000000000000000000CDDDDDDDDDDDDDDDDDDDDB000000000000000000000
000000000000000000000ADDDDDDDDDDDDDDDDDDDDA000000000000000000000
0000000000000000000006DDDDDDDDDDDDDDDDDDDD6000000000000000000000
0000000000000000000002DDDDDDDDDDDDDDDDDDDD2000000000000000000000
00000000000000000000008DDDDDDDDDDDDDDDDDD80000000000000000000000
00000000000000000000001CDDDDDDDDDDDDDDDDC10000000000000000000000
000000000000000000000003DDDDDDDDDDDDDDDD300000000000000000000000
0000000000000000000000003CDDDDDDDDDDDDC4000000000000000000000000
000000000000000000000000029DDDDDDDDDD920000000000000000000000000
00000000000000000000000000038CDDDDC83000000000000000000000000000
0000000000000000000000000000001221000000000000000000000000000000
00000000000000000000158B9300000000000039B85100000000000000000000
00000000000000000018CDDDDD820000000028DDDDDC81000000000000000000
000000000000000005CDDDDDDDDDB754457BDDDDDDDDDC400000000000000000
00000000000000007DDDDDDDDDDDDDDDDDDDDDDDDDDDDDD70000000000000000
0000000000000008DDDDDDDDDDDDDDDDDDDDDDDDDDDDDDDD6000000000000000
000000000000005DDDDDDDDDDDDDDDDDDDDDDDDDDDDDDDDDD400000000000000
00000000000001CDDDDDDDDDDDDDDDDDDDDDDDDDDDDDDDDDDC10000000000000
00000000000008DDDDDDDDDDDDDDDDDDDDDDDDDDDDDDDDDDDD80000000000000
0000000000000111111111111111111111111111111111111110000000000000
0000000000000000000000000000000000000000000000000000000000000000
0000000000000000000000000000000000000000000000000000000000000000
0000000000000000000000000000000000000000000000000000000000000000
0000000007AAAAAAAAAAAAAAAAAAAAAAAAAAAAAAAAAAAAAAAAAAAA7000000000
0000000008DDDDDDDDDDDDDDDDDDDDDDDDDDDDDDDDDDDDDDDDDDDD8000000000
0000000008DDDDDDDDDDDDDDDDDDDDDDDDDDDDDDDDDDDDDDDDDDDD8000000000
0000000008DDDDDDDDDDDDDDDDDDDDDDDDDDDDDDDDDDDDDDDDDDDD8000000000
0000000008DDDDDDDDDDDDDDDDDDDDDDDDDDDDDDDDDDDDDDDDDDDD8000000000
0000000008DDDDDDDDDDDDDDDDDDDDDDDDDDDDDDDDDDDDDDDDDDDD8000000000
0000000008DDDDDDDDDDDDDDDDDDDDDDDDDDDDDDDDDDDDDDDDDDDD8000000000
0000000008DDDDDDDDDDDDDDDDDDDDDDDD559DDDDDDDDDDDDDDDDD8000000000
0000000008DDDDDDDDDDDDDDDDDDDDDDD800BDDDDDDDDDDDDDDDDD8000000000
0000000008DDDDDDDDDDDDDDDDDDDDDDD205DDDDDDDDDDDDDDDDDD8000000000
0000000008DDDDDDDDDDDDDDA57DDDDD900BD649DDDDDDDDDDDDDD8000000000
0000000008DDDDDDDDDDDC82006DDDDD304DD60027CDDDDDDDDDDD8000000000
0000000008DDDDDDDDDA5000007DDDD900ADD7000005ADDDDDDDDD8000000000
0000000008DDDDDDDD9000027BDDDDD304DDDDB7200009DDDDDDDD8000000000
0000000008DDDDDDDD8001ADDDDDDDA00ADDDDDDDA1008DDDDDDDD8000000000
0000000008DDDDDDDD9000037BDDDD403DDDDDB7300009DDDDDDDD8000000000
0000000008DDDDDDDDDA5000007DDB009DDDD7000005ADDDDDDDDD8000000000
0000000008DDDDDDDDDDDC83006DD402DDDDD60028CDDDDDDDDDDD8000000000
0000000008DDDDDDDDDDDDDDA57DB009DDDDD75ADDDDDDDDDDDDDD8000000000
0000000008DDDDDDDDDDDDDDDDDD502DDDDDDDDDDDDDDDDDDDDDDD8000000000
0000000008DDDDDDDDDDDDDDDDDC008DDDDDDDDDDDDDDDDDDDDDDD8000000000
0000000008DDDDDDDDDDDDDDDDD601DDDDDDDDDDDDDDDDDDDDDDDD8000000000
0000001119DDDDDDDDDDDDDDDDDDDDDDDDDDDDDDDDDDDDDDDDDDDD9000000000
0000008DDDDDDDDDDDDDDDDDDDDDDDDDDDDDDDDDDDDDDDDDDDDDDDDDD9000000
0000001CDDDDDDDDDDDDDDDDDDDDDDDDDDDDDDDDDDDDDDDDDDDDDDDDD2000000
00000006DDDDDDDDDDDDDDDDDDDDDDDDDDDDDDDDDDDDDDDDDDDDDDDD70000000
00000000BDDDDDDDDDDDDDDDDDDDDDDDDDDDDDDDDDDDDDDDDDDDDDDC00000000
000000005DDDDDDDDDDDDDDDDDDDDDDDDDDDDDDDDDDDDDDDDDDDDDD500000000
0000000008999999999999999999999999999999999999999999998000000000
}

!define OCI_DEVELOPER(_color)                                 SPRITE_PUT(          OCI_DEVELOPER          oci_developer, _color)
!define OCI_DEVELOPER(_color, _scale)                         SPRITE_PUT(          OCI_DEVELOPER          oci_developer, _color, _scale)
!define OCI_DEVELOPER(_color, _scale, _alias)                 SPRITE_ENT(  _alias, OCI_DEVELOPER,         oci_developer, _color, _scale)
!define OCI_DEVELOPER(_color, _scale, _alias, _shape)         SPRITE_ENT(  _alias, OCI_DEVELOPER,         oci_developer, _color, _scale, _shape)
!define OCI_DEVELOPER(_color, _scale, _alias, _shape, _label) SPRITE_ENT_L(_alias, OCI_DEVELOPER, _label, oci_developer, _color, _scale, _shape)
skinparam folderBackgroundColor<<OCI_DEVELOPER>> White
