sprite $oci_legacymainframe [64x64/16] {
000000000ADDDDDDDDDDDDDDDDDDDDDDDDDDDDDDDDDDDDDDDDDDDDA000000000
000000000ADDDDDDDDDDDDDDDDDDDDDDDDDDDDDDDDDDDDDDDDDDDDA000000000
000000000ADDDDDDDDDDDDDDDDDDDDDDDDDDDDDDDDDDDDDDDDDDDDA000000000
000000000ADDDDDDDDDDDDDDDDDDDDDDDDDDDDDDDDDDDDDDDDDDDDA000000000
000000000ADDDC77CDDC77CDDDDDDDDDDDD4444444444444446DDDA000000000
000000000ADDD5004DD4005DDDDDDDDDDDD0000000000000003DDDA000000000
000000000ADDD2001DD1002DDDDDDDDDDDD0000000000000003DDDA000000000
000000000ADDD7007DD7007DDDDDDDDDDDD0000000000000003DDDA000000000
000000000ADDDDBBDDDDBBDDDDDDDDDDDDD8888888888888889DDDA000000000
000000000ADDDDDDDDDDDDDDDDDDDDDDDDDDDDDDDDDDDDDDDDDDDDA000000000
000000000ADDDDDDDDDDDDDDDDDDDDDDDDDDDDDDDDDDDDDDDDDDDDA000000000
000000000ADDDDDDDDDDDDDDDDDDDDDDDDDDDDDDDDDDDDDDDDDDDDA000000000
000000000799ADDDD999999999999999999999999999999DDDDBAA8000000000
0000000000001DDDC000000000000000000000000000000CDDD1000000000000
0000000000001DDDC000000000000000000000000000000CDDD1000000000000
0000000000001DDDC000000000000000000000000000000CDDD1000000000000
0000000000001DDDC000000000000000000000000000000CDDD1000000000000
000000000ACCCDDDDCCCCCCCCCCCCCCCCCCCCCCCCCCCCCCDDDDBBB9000000000
000000000ADDDDDDDDDDDDDDDDDDDDDDDDDDDDDDDDDDDDDDDDDDDDA000000000
000000000ADDDDDDDDDDDDDDDDDDDDDDDDDDDDDDDDDDDDDDDDDDDDA000000000
000000000ADDDDDDDDDDDDDDDDDDDDDDDDDDDDDDDDDDDDDDDDDDDDA000000000
000000000ADDDD99DDDD99DDDDDDDDDDDDD6666666666666668DDDA000000000
000000000ADDD5005DD5006DDDDDDDDDDDD0000000000000003DDDA000000000
000000000ADDD2001DD1002DDDDDDDDDDDD0000000000000003DDDA000000000
000000000ADDD6005DD5006DDDDDDDDDDDD0000000000000003DDDA000000000
000000000ADDDDA9DDDD9ADDDDDDDDDDDDD6666666666666668DDDA000000000
000000000ADDDDDDDDDDDDDDDDDDDDDDDDDDDDDDDDDDDDDDDDDDDDA000000000
000000000ADDDDDDDDDDDDDDDDDDDDDDDDDDDDDDDDDDDDDDDDDDDDA000000000
000000000ADDDDDDDDDDDDDDDDDDDDDDDDDDDDDDDDDDDDDDDDDDDDA000000000
000000000799ADDDDBBBBBBBBBBBBBBBBBBBBBBBBBBBBBBDDDDA997000000000
0000000000001DDDC000000000000000000000000000000CDDD1000000000000
0000000000001DDDC000000000000000000000000000000CDDD1000000000000
0000000000001DDDC000000000000000000000000000000CDDD1000000000000
0000000000001DDDC000000000000000000000000000000CDDD1000000000000
000000000ACCCDDDDBBBBBBBBBBBBBBBBBBBBBBBBBBBBBBDDDDCCC9000000000
000000000ADDDDDDDDDDDDDDDDDDDDDDDDDDDDDDDDDDDDDDDDDDDD9000000000
000000000ADDDDDDDDDDDDDDDDDDDDDDDDDDDDDDDDDDDDDDDDDDDD9000000000
000000000ADDDDDDDDDDDDDDDDDDDDDDDDDDDDDDDDDDDDDDDDBA9A8000000000
000000000ADDDDAADDDD9ADDDDDDDDDDDDD55555555555553000000000000000
000000000ADDD6006DD5006DDDDDDDDDDDD00000000000000000000000000000
000000000ADDD2001DD1002DDDDDDDDDDDD00000000000000000000000000000
000000000ADDD5005DD5006DDDDDDDDDDDD00000000000000000100000000000
000000000ADDDD88DDDD99DDDDDDDDDDDDD777777200000048CDDDB830000000
000000000ADDDDDDDDDDDDDDDDDDDDDDDDDDDDDDA000004BDDDDDDDDDA200000
000000000ADDDDDDDDDDDDDDDDDDDDDDDDDDDDDC100006DDDDDDDDDDDDD50000
000000000ADDDDDDDDDDDDDDDDDDDDDDDDDDDDD600007DDDDDDDDDDDDDDD5000
0000000008AABDDDDAAAAAAAAAAAAAAAAAAAAAA00004DDDDDDDDDDDDDDDDD300
0000000000001DDDC00000000000000000000000000CDDDDDDDDCDDDDDDDDA00
0000000000001DDDC00000000000000000000000006DDDDDDDDB2CDDDDDDDD40
0000000000001DDDC0000000000000000000000000ADDDDDDDD304DDDDDDDD80
0000000000001DDDC0000000000000000000000001DDD9CDDD70008DDDB9DDC0
0000000009BBBDDDDBBBBBBBBBBBBBBBBBBBB70002DDD706CB00000BB50ADDD1
000000000ADDDDDDDDDDDDDDDDDDDDDDDDDDD80004DDDC0001000001001DDDD2
000000000ADDDDDDDDDDDDDDDDDDDDDDDDDDD80003DDDD4000000000006DDDD1
000000000ADDDDDDDDDDDDDDDDDDDDDDDDDDD90001DDDD900000000000BDDDD0
000000000ADDDDBBDDDDBBDDDDDDDDDDDDD7650000BDDDD10000000002DDDD90
000000000ADDD7007DD7007DDDDDDDDDDDD10000007DDDDA999999999BDDDD50
000000000ADDD2001DD1002DDDDDDDDDDDD10000001CDDDDDDDDDDDDDDDDDB00
000000000ADDD5004DD4005DDDDDDDDDDDD100000007DDDDDDDDDDDDDDDDD500
000000000ADDDC77CDDC77DDDDDDDDDDDDD7666300009DDDDDDDDDDDDDDD8000
000000000ADDDDDDDDDDDDDDDDDDDDDDDDDDDDDC10001ADDDDDDDDDDDDD80000
000000000ADDDDDDDDDDDDDDDDDDDDDDDDDDDDDDA000007DDDDDDDDDDC500000
000000000ADDDDDDDDDDDDDDDDDDDDDDDDDDDDDDD80000028CDDDDDB71000000
0000000009BBBBBBBBBBBBBBBBBBBBBBBBBBBBBBBB6000000024432000000000
}

!define OCI_LEGACYMAINFRAME(_color)                                 SPRITE_PUT(          OCI_LEGACYMAINFRAME          oci_legacymainframe, _color)
!define OCI_LEGACYMAINFRAME(_color, _scale)                         SPRITE_PUT(          OCI_LEGACYMAINFRAME          oci_legacymainframe, _color, _scale)
!define OCI_LEGACYMAINFRAME(_color, _scale, _alias)                 SPRITE_ENT(  _alias, OCI_LEGACYMAINFRAME,         oci_legacymainframe, _color, _scale)
!define OCI_LEGACYMAINFRAME(_color, _scale, _alias, _shape)         SPRITE_ENT(  _alias, OCI_LEGACYMAINFRAME,         oci_legacymainframe, _color, _scale, _shape)
!define OCI_LEGACYMAINFRAME(_color, _scale, _alias, _shape, _label) SPRITE_ENT_L(_alias, OCI_LEGACYMAINFRAME, _label, oci_legacymainframe, _color, _scale, _shape)
skinparam folderBackgroundColor<<OCI_LEGACYMAINFRAME>> White
