sprite $oci_machinelearning [64x64/16] {
00000000000000001589AAAAAA94000000000000000000000000000001686100
0000000000000007CDDDDDDDDDDD70000000000000000000000000003CDDDB20
00000000000001BDDDDDDDDDDDDDD300000000008CCCCCCCCCCCCCCCDDDDDDA0
0000000000001BDDDDDDDDDDDDDDD600000000009DDDDDDDDDDDDDDDDDDDDDD2
0000000000009DDDDDDDDDDDDDDDD700000000009DDDDDDDDDDDDDDDDDDDDDD3
000000000004DDDDDDDDDDDDDDDDD700000000009DDDDDDDDDDDDDDDDDDDDDC0
000000000009DDDDDDDDDDDDDDDDD700000000009DDD6111111111116DDDDD50
00000000000DDDDDDDDDDDDDDDDDD700000000009DDD50000000000005ACA400
00000000002DDDDDDDDDDDDDDDDDD700000000009DDD50000000000000000000
00000000003DDDDDDDDDDDDDDDDDD700000000009DDD50000000000000000000
00000000003DDDDDDDDDDDDDDDDDD70004DDDDDDDDDD50000000000000000000
00000000003DDDDDDDDDDDDDDDDDD70004DDDDDDDDDD50000000000000000000
0000000029DDDDDDDDDDDDDDDDDDD70004DDDDDDDDDD50000000000000000000
00000007DDDDDDDDDDDDDDDDDDDDD70004DDDDDDDDDD50000036400000000000
0000009DDDDDDDDDDDDDDDDDDDDDD700000000000000000009DDDB3000000000
000009DDDDDDDDDDDDDDDDDDDDDDD70000000000000000007DDDDDB000000000
00007DDDDDDDDDDDDDDDDDDDDDDDD7000000000000000000CDDDDDD400000000
0002DDDDDDDDDDDDDDDDDDDDDDDDD7000000000000000000DDDDDDD500000000
0008DDDDDDDDDDDDDDDDDDDDDDDDD7000000000000000000BDDDDDD300000000
001DDDDDDDDDDDDDDDDDDDDDDDDDD70001333333333000005DDDDDA000000000
004DDDDDDDDDDDDDDDDDDDDDDDDDD70004DDDDDDDDD2000007DDDB0000000000
007DDDDDDDDDDDDDDDDDDDDDDDDDD70004DDDDDDDDD2000004DDD90000000000
009DDDDDDDDDDDDDDDDDDDDDDDDDD70004DDDDDDDDD2000004DDD90000000000
00ADDDDDDDDDDDDDDDDDDDDDDDDDD70003AAAAADDDD2000004DDD90000000000
009DDDDDDDDDDDDDDDDDDDDDDDDDD7000000000BDDD2000004DDD90000000000
008DDDDDDDDDDDDDDDDDDDDDDDDDD7000000000BDDD8777779DDD90000000000
005DDDDDDDDDDDDDDDDDDDDDDDDDD7000000000BDDDDDDDDDDDDD90000000000
001DDDDDDDDDDDDDDDDDDDDDDDDDD7000000000BDDDDDDDDDDDDD90000000000
0009DDDDDDD31BD40A24DDDDDDDDD7000000000BDDDDDDDDDDDDD90000000000
0007DDDDDDD203800A14DDDDDDDDD70000000005666666666666640000000000
004DDDDDDDD210010A14DDDDDDDDD70000000000000000000000000000000000
01CDDDDDDDD234160A14DDDDDDDDD70000000000000000000000000000000000
07DDDDDDDDD23C970A11559DDDDDD70000000000000000000000000000000000
0CDDDDDDDDD56DD93A43338DDDDDD70000000000000000000000000000000000
4DDDDDDDDDDDDDDDDDDDDDDDDDDDD70005DDDDDDDDDDDDDDA000000000000000
7DDDDDDDDDDDDDDDDDDDDDDDDDDDD70005DDDDDDDDDDDDDDA000000000000000
8DDDDDDDDDDDDDDDDDDDDDDDDDDDD70005DDDDDDDDDDDDDDA000000000000000
9DDDDDDDDDDDDDDDDDDDDDDDDDDDD70005DDDDDDDDDDDDDDA000000000000000
8DDDDDDDDDDDDDDDDDDDDDDDDDDDD7000000000000003DDDA000000000243000
7DDDDDDDDDDDDDDDDDDDDDDDDDDDD7000000000000003DDDA000000009DDDA10
3DDDDDDDDDDDDDDDDDDDDDDDDDDDD7000000000000003DDDC8888888ADDDDDA0
0CDDDDDDDDDDDDDDDDDDDDDDDDDDD7000000000000003DDDDDDDDDDDDDDDDDD3
07DDDDDDDDDDDDDDDDDDDDDDDDDDD7000000000000003DDDDDDDDDDDDDDDDDD4
00BDDDDDDDDDDDDDDDDDDDDDDDDDD7000000000000003DDDDDDDDDDDDDDDDDD2
003DDDDDDDDDDDDDDDDDDDDDDDDDD70003BBBBBB30001666666666669DDDDD90
0005DDDDDDDDDDDDDDDDDDDDDDDDD70004DDDDDD400000000000000007CDD800
00004CDDDDDDDDDDDDDDDDDDDDDDD70004DDDDDD400000000000000000021000
0000018DDDDDDDDDDDDDDDDDDDDDD70004DDDDDD400000000000000000000000
000000019DDDDDDDDDDDDDDDDDDDD7000022ADDD400000000002100000000000
000000009DDDDDDDDDDDDDDDDDDDD70000009DDD4000000006CDD91000000000
00000000ADDDDDDDDDDDDDDDDDDDD70000009DDD400000005DDDDDA000000000
000000009DDDDDDDDDDDDDDDDDDDD70000009DDD40000000CDDDDDD400000000
000000006DDDDDDDDDDDDDDDDDDDD70000009DDD40000001DDDDDDD600000000
000000002DDDDDDDDDDDDDDDDDDDD70000009DDD40000000CDDDDDD400000000
0000000008DDDDDDDDDDDDDDDDDDD70000009DDD400000007DDDDDB000000000
0000000000BDDDDDDDDDDDDDDDDDD70000009DDD4000000009DDDC2000000000
00000000001ADDDDDDDDDDDDDDDDD70000009DDD4000000004DDD90000000000
0000000000006BDDDDDDDDDDDDDDD70000009DDD4000000004DDD90000000000
000000000000002446DDDDDDDDDDD60000009DDD4000000004DDD90000000000
000000000000000001DDDDDDDDDDD40000009DDD8666666668DDD90000000000
0000000000000000009DDDDDDDDDC00000009DDDDDDDDDDDDDDDD90000000000
0000000000000000002CDDDDDDDD400000009DDDDDDDDDDDDDDDD90000000000
00000000000000000003BDDDDDC5000000009DDDDDDDDDDDDDDDD90000000000
00000000000000000000069BA610000000005888888888888888850000000000
}

!define OCI_MACHINELEARNING(_color)                                 SPRITE_PUT(          OCI_MACHINELEARNING          oci_machinelearning, _color)
!define OCI_MACHINELEARNING(_color, _scale)                         SPRITE_PUT(          OCI_MACHINELEARNING          oci_machinelearning, _color, _scale)
!define OCI_MACHINELEARNING(_color, _scale, _alias)                 SPRITE_ENT(  _alias, OCI_MACHINELEARNING,         oci_machinelearning, _color, _scale)
!define OCI_MACHINELEARNING(_color, _scale, _alias, _shape)         SPRITE_ENT(  _alias, OCI_MACHINELEARNING,         oci_machinelearning, _color, _scale, _shape)
!define OCI_MACHINELEARNING(_color, _scale, _alias, _shape, _label) SPRITE_ENT_L(_alias, OCI_MACHINELEARNING, _label, oci_machinelearning, _color, _scale, _shape)
skinparam folderBackgroundColor<<OCI_MACHINELEARNING>> White
